{
  "contractName": "Patent",
  "abi": [
    {
      "constant": true,
      "inputs": [],
      "name": "owner",
      "outputs": [
        {
          "name": "",
          "type": "address"
        }
      ],
      "payable": false,
      "stateMutability": "view",
      "type": "function"
    },
    {
      "constant": false,
      "inputs": [
        {
          "name": "newOwner",
          "type": "address"
        }
      ],
      "name": "transferOwnership",
      "outputs": [],
      "payable": false,
      "stateMutability": "nonpayable",
      "type": "function"
    },
    {
      "constant": true,
      "inputs": [
        {
          "name": "",
          "type": "uint256"
        }
      ],
      "name": "patents",
      "outputs": [
        {
          "name": "patentHash",
          "type": "string"
        },
        {
          "name": "name",
          "type": "string"
        },
        {
          "name": "description",
          "type": "string"
        },
        {
          "name": "author",
          "type": "string"
        },
        {
          "name": "date",
          "type": "uint256"
        },
        {
          "name": "patentType",
          "type": "uint8"
        }
      ],
      "payable": false,
      "stateMutability": "view",
      "type": "function"
    },
    {
      "inputs": [
        {
          "name": "_hash",
          "type": "string"
        },
        {
          "name": "_name",
          "type": "string"
        },
        {
          "name": "_description",
          "type": "string"
        },
        {
          "name": "_author",
          "type": "string"
        },
        {
          "name": "_patentType",
          "type": "uint8"
        },
        {
          "name": "creator",
          "type": "address"
        }
      ],
      "payable": false,
      "stateMutability": "nonpayable",
      "type": "constructor"
    },
    {
      "payable": true,
      "stateMutability": "payable",
      "type": "fallback"
    },
    {
      "anonymous": false,
      "inputs": [
        {
          "indexed": true,
          "name": "_from",
          "type": "address"
        },
        {
          "indexed": true,
          "name": "_to",
          "type": "address"
        }
      ],
      "name": "OwnershipTransferred",
      "type": "event"
    },
    {
      "constant": false,
      "inputs": [
        {
          "name": "amount",
          "type": "uint256"
        }
      ],
      "name": "withdraw",
      "outputs": [
        {
          "name": "",
          "type": "bool"
        }
      ],
      "payable": false,
      "stateMutability": "nonpayable",
      "type": "function"
    }
  ],
  "bytecode": "0x606060405234156200001057600080fd5b60405162000ca238038062000ca283398101604052808051820191906020018051820191906020018051820191906020018051820191906020018051906020019091908051906020019091905050620000686200023e565b81600073ffffffffffffffffffffffffffffffffffffffff168173ffffffffffffffffffffffffffffffffffffffff16141515620000e657806000806101000a81548173ffffffffffffffffffffffffffffffffffffffff021916908373ffffffffffffffffffffffffffffffffffffffff16021790555062000127565b336000806101000a81548173ffffffffffffffffffffffffffffffffffffffff021916908373ffffffffffffffffffffffffffffffffffffffff1602179055505b5060c0604051908101604052808881526020018781526020018681526020018581526020014281526020018460ff1681525090506001805480600101828162000171919062000298565b916000526020600020906006020160008390919091506000820151816000019080519060200190620001a5929190620002cd565b506020820151816001019080519060200190620001c4929190620002cd565b506040820151816002019080519060200190620001e3929190620002cd565b50606082015181600301908051906020019062000202929190620002cd565b506080820151816004015560a08201518160050160006101000a81548160ff021916908360ff1602179055505050505050505050505062000462565b60c0604051908101604052806200025462000354565b81526020016200026362000354565b81526020016200027262000354565b81526020016200028162000354565b815260200160008152602001600060ff1681525090565b815481835581811511620002c857600602816006028360005260206000209182019101620002c7919062000368565b5b505050565b828054600181600116156101000203166002900490600052602060002090601f016020900481019282601f106200031057805160ff191683800117855562000341565b8280016001018555821562000341579182015b828111156200034057825182559160200191906001019062000323565b5b509050620003509190620003ee565b5090565b602060405190810160405280600081525090565b620003eb91905b80821115620003e757600080820160006200038b919062000416565b6001820160006200039d919062000416565b600282016000620003af919062000416565b600382016000620003c1919062000416565b60048201600090556005820160006101000a81549060ff0219169055506006016200036f565b5090565b90565b6200041391905b808211156200040f576000816000905550600101620003f5565b5090565b90565b50805460018160011615610100020316600290046000825580601f106200043e57506200045f565b601f0160209004906000526020600020908101906200045e9190620003ee565b5b50565b61083080620004726000396000f300606060405260043610610062576000357c0100000000000000000000000000000000000000000000000000000000900463ffffffff1680632e1a7d4d146100645780638da5cb5b1461009f578063f2fde38b146100f4578063f422bc681461012d575b005b341561006f57600080fd5b6100856004808035906020019091905050610321565b604051808215151515815260200191505060405180910390f35b34156100aa57600080fd5b6100b261040e565b604051808273ffffffffffffffffffffffffffffffffffffffff1673ffffffffffffffffffffffffffffffffffffffff16815260200191505060405180910390f35b34156100ff57600080fd5b61012b600480803573ffffffffffffffffffffffffffffffffffffffff16906020019091905050610433565b005b341561013857600080fd5b61014e600480803590602001909190505061054c565b60405180806020018060200180602001806020018781526020018660ff1660ff16815260200185810385528b818151815260200191508051906020019080838360005b838110156101ac578082015181840152602081019050610191565b50505050905090810190601f1680156101d95780820380516001836020036101000a031916815260200191505b5085810384528a818151815260200191508051906020019080838360005b838110156102125780820151818401526020810190506101f7565b50505050905090810190601f16801561023f5780820380516001836020036101000a031916815260200191505b50858103835289818151815260200191508051906020019080838360005b8381101561027857808201518184015260208101905061025d565b50505050905090810190601f1680156102a55780820380516001836020036101000a031916815260200191505b50858103825288818151815260200191508051906020019080838360005b838110156102de5780820151818401526020810190506102c3565b50505050905090810190601f16801561030b5780820380516001836020036101000a031916815260200191505b509a505050505050505050505060405180910390f35b60008060009054906101000a900473ffffffffffffffffffffffffffffffffffffffff1673ffffffffffffffffffffffffffffffffffffffff163373ffffffffffffffffffffffffffffffffffffffff1614151561037e57600080fd5b3073ffffffffffffffffffffffffffffffffffffffff163182111515156103a457600080fd5b6000809054906101000a900473ffffffffffffffffffffffffffffffffffffffff1673ffffffffffffffffffffffffffffffffffffffff166108fc839081150290604051600060405180830381858888f19350505050151561040557600080fd5b60019050919050565b6000809054906101000a900473ffffffffffffffffffffffffffffffffffffffff1681565b6000809054906101000a900473ffffffffffffffffffffffffffffffffffffffff1673ffffffffffffffffffffffffffffffffffffffff163373ffffffffffffffffffffffffffffffffffffffff1614151561048e57600080fd5b8073ffffffffffffffffffffffffffffffffffffffff166000809054906101000a900473ffffffffffffffffffffffffffffffffffffffff1673ffffffffffffffffffffffffffffffffffffffff167f8be0079c531659141344cd1fd0a4f28419497f9722a3daafe3b4186f6b6457e060405160405180910390a3806000806101000a81548173ffffffffffffffffffffffffffffffffffffffff021916908373ffffffffffffffffffffffffffffffffffffffff16021790555050565b60018181548110151561055b57fe5b9060005260206000209060060201600091509050806000018054600181600116156101000203166002900480601f0160208091040260200160405190810160405280929190818152602001828054600181600116156101000203166002900480156106075780601f106105dc57610100808354040283529160200191610607565b820191906000526020600020905b8154815290600101906020018083116105ea57829003601f168201915b505050505090806001018054600181600116156101000203166002900480601f0160208091040260200160405190810160405280929190818152602001828054600181600116156101000203166002900480156106a55780601f1061067a576101008083540402835291602001916106a5565b820191906000526020600020905b81548152906001019060200180831161068857829003601f168201915b505050505090806002018054600181600116156101000203166002900480601f0160208091040260200160405190810160405280929190818152602001828054600181600116156101000203166002900480156107435780601f1061071857610100808354040283529160200191610743565b820191906000526020600020905b81548152906001019060200180831161072657829003601f168201915b505050505090806003018054600181600116156101000203166002900480601f0160208091040260200160405190810160405280929190818152602001828054600181600116156101000203166002900480156107e15780601f106107b6576101008083540402835291602001916107e1565b820191906000526020600020905b8154815290600101906020018083116107c457829003601f168201915b5050505050908060040154908060050160009054906101000a900460ff169050865600a165627a7a7230582018754d14f30f5d69a33dc5c57124a487971954c7be2345343b47609f677ad2bb0029",
  "source": "pragma solidity ^0.4.2;\n\n/*\n\nContract Patent is used by main contract to create new patents (ideas).\nIt has array of created patents and patent constructor.\nContract owner can withdraw funds from contract.\n\n*/\nimport \"contracts/ownership/Owned.sol\";\nimport \"contracts/math/SafeMath.sol\";\n/* import \"./ERC20.sol\"; */\n\n\n/**\n*Contract Patent is used by main contract to create new patents (ideas).\n*It has array of created patents and patent constructor.\n*Contract owner can withdraw funds from contract.\n*/\ncontract Patent is Owned {\n\n    using SafeMath for uint;\n\n    struct patentInfo {\n        string patentHash;\n        string name;\n        string description;\n        string author;\n        uint date;\n        uint8 patentType;\n    }\n\n    patentInfo[] public patents;\n\n    function Patent(\n        string _hash,\n        string _name,\n        string _description,\n        string _author,\n        uint8 _patentType,\n        address creator\n    ) public Owned(creator) {\n\n        patentInfo memory newPatent = patentInfo({\n            patentHash: _hash,\n            name: _name,\n            description: _description,\n            author: _author,\n            date: now,\n            patentType: _patentType\n            });\n\n        patents.push(newPatent);\n    }\n\n    function withdraw(uint amount) onlyOwner public returns(bool) {\n        require(amount <= address(this).balance);\n        owner.transfer(amount);\n        return true;\n\n    }\n\n\n    //      COMMENTED AS NOT NEEDED - YOU WILL NEED TO CHECK AND SHOW VAULT BALANCE\n    //    function getBalance() public view returns(uint){\n    //        return address(this).balance;\n    //    }\n\n\n    /**\n    * Fallback function\n    */\n    function () public payable {\n    }\n\n}",
  "sourcePath": "contracts/patent/Patent.sol",
  "compiler": {
    "name": "solc",
    "version": "0.4.21+commit.dfe3193c.Emscripten.clang"
  },
  "schemaVersion": "2.0.0",
  "updatedAt": "2018-04-04T22:14:18.461Z"
}