{
  "contractName": "PatentManager",
  "abi": [
    {
      "constant": true,
      "inputs": [
        {
          "name": "",
          "type": "uint256"
        }
      ],
      "name": "deployedPatents",
      "outputs": [
        {
          "name": "_address",
          "type": "address"
        },
        {
          "name": "_owned",
          "type": "bool"
        },
        {
          "name": "_invested",
          "type": "uint256"
        }
      ],
      "payable": false,
      "stateMutability": "view",
      "type": "function"
    },
    {
      "constant": true,
      "inputs": [],
      "name": "manager",
      "outputs": [
        {
          "name": "",
          "type": "address"
        }
      ],
      "payable": false,
      "stateMutability": "view",
      "type": "function"
    },
    {
      "constant": false,
      "inputs": [
        {
          "name": "newManager",
          "type": "address"
        }
      ],
      "name": "transferManagerRights",
      "outputs": [],
      "payable": false,
      "stateMutability": "nonpayable",
      "type": "function"
    },
    {
      "constant": true,
      "inputs": [],
      "name": "owner",
      "outputs": [
        {
          "name": "",
          "type": "address"
        }
      ],
      "payable": false,
      "stateMutability": "view",
      "type": "function"
    },
    {
      "constant": true,
      "inputs": [],
      "name": "state",
      "outputs": [
        {
          "name": "",
          "type": "uint8"
        }
      ],
      "payable": false,
      "stateMutability": "view",
      "type": "function"
    },
    {
      "constant": false,
      "inputs": [
        {
          "name": "newOwner",
          "type": "address"
        }
      ],
      "name": "transferOwnership",
      "outputs": [],
      "payable": false,
      "stateMutability": "nonpayable",
      "type": "function"
    },
    {
      "inputs": [
        {
          "name": "_manager",
          "type": "address"
        }
      ],
      "payable": true,
      "stateMutability": "payable",
      "type": "constructor"
    },
    {
      "anonymous": false,
      "inputs": [],
      "name": "InvestmentsStarted",
      "type": "event"
    },
    {
      "anonymous": false,
      "inputs": [
        {
          "indexed": true,
          "name": "beneficiary",
          "type": "address"
        },
        {
          "indexed": false,
          "name": "weiAmount",
          "type": "uint256"
        }
      ],
      "name": "Invested",
      "type": "event"
    },
    {
      "anonymous": false,
      "inputs": [
        {
          "indexed": true,
          "name": "_from",
          "type": "address"
        },
        {
          "indexed": true,
          "name": "_to",
          "type": "address"
        }
      ],
      "name": "ManagerChanged",
      "type": "event"
    },
    {
      "anonymous": false,
      "inputs": [
        {
          "indexed": true,
          "name": "_from",
          "type": "address"
        },
        {
          "indexed": true,
          "name": "_to",
          "type": "address"
        }
      ],
      "name": "OwnershipTransferred",
      "type": "event"
    },
    {
      "constant": false,
      "inputs": [
        {
          "name": "_hash",
          "type": "string"
        },
        {
          "name": "_name",
          "type": "string"
        },
        {
          "name": "_description",
          "type": "string"
        },
        {
          "name": "_author",
          "type": "string"
        },
        {
          "name": "_patentType",
          "type": "uint8"
        }
      ],
      "name": "createPatent",
      "outputs": [],
      "payable": false,
      "stateMutability": "nonpayable",
      "type": "function"
    },
    {
      "constant": false,
      "inputs": [],
      "name": "deposit",
      "outputs": [],
      "payable": true,
      "stateMutability": "payable",
      "type": "function"
    },
    {
      "constant": false,
      "inputs": [],
      "name": "enableInvestments",
      "outputs": [],
      "payable": false,
      "stateMutability": "nonpayable",
      "type": "function"
    },
    {
      "constant": false,
      "inputs": [
        {
          "name": "_id",
          "type": "uint256"
        },
        {
          "name": "_value",
          "type": "uint256"
        }
      ],
      "name": "invest",
      "outputs": [],
      "payable": false,
      "stateMutability": "nonpayable",
      "type": "function"
    }
  ],
  "bytecode": "0x6060604052604051602080611d6f833981016040528080519060200190919050508033600073ffffffffffffffffffffffffffffffffffffffff168173ffffffffffffffffffffffffffffffffffffffff1614151561009d57806000806101000a81548173ffffffffffffffffffffffffffffffffffffffff021916908373ffffffffffffffffffffffffffffffffffffffff1602179055506100de565b336000806101000a81548173ffffffffffffffffffffffffffffffffffffffff021916908373ffffffffffffffffffffffffffffffffffffffff1602179055505b50600073ffffffffffffffffffffffffffffffffffffffff168173ffffffffffffffffffffffffffffffffffffffff1614151561015b5780600160006101000a81548173ffffffffffffffffffffffffffffffffffffffff021916908373ffffffffffffffffffffffffffffffffffffffff16021790555061019d565b33600160006101000a81548173ffffffffffffffffffffffffffffffffffffffff021916908373ffffffffffffffffffffffffffffffffffffffff1602179055505b506000600160146101000a81548160ff021916908360018111156101bd57fe5b021790555050611b9d806101d26000396000f300606060405260043610620000af576000357c0100000000000000000000000000000000000000000000000000000000900463ffffffff16806346f58ee714620000b4578063478c1e52146200012c578063481c6a75146200014457806359d3af3b146200019c5780638da5cb5b14620001d8578063b6a45a821462000230578063c19d93fb1462000365578063d0e30db014620003a0578063d87aa64314620003ac578063f2fde38b14620003db575b600080fd5b3415620000c057600080fd5b620000d8600480803590602001909190505062000417565b604051808473ffffffffffffffffffffffffffffffffffffffff1673ffffffffffffffffffffffffffffffffffffffff16815260200183151515158152602001828152602001935050505060405180910390f35b34156200013857600080fd5b620001426200047e565b005b34156200015057600080fd5b6200015a6200052c565b604051808273ffffffffffffffffffffffffffffffffffffffff1673ffffffffffffffffffffffffffffffffffffffff16815260200191505060405180910390f35b3415620001a857600080fd5b620001d6600480803573ffffffffffffffffffffffffffffffffffffffff1690602001909190505062000552565b005b3415620001e457600080fd5b620001ee6200066e565b604051808273ffffffffffffffffffffffffffffffffffffffff1673ffffffffffffffffffffffffffffffffffffffff16815260200191505060405180910390f35b34156200023c57600080fd5b62000363600480803590602001908201803590602001908080601f0160208091040260200160405190810160405280939291908181526020018383808284378201915050505050509190803590602001908201803590602001908080601f0160208091040260200160405190810160405280939291908181526020018383808284378201915050505050509190803590602001908201803590602001908080601f0160208091040260200160405190810160405280939291908181526020018383808284378201915050505050509190803590602001908201803590602001908080601f0160208091040260200160405190810160405280939291908181526020018383808284378201915050505050509190803560ff1690602001909190505062000693565b005b34156200037157600080fd5b6200037b62000a5d565b604051808260018111156200038c57fe5b60ff16815260200191505060405180910390f35b620003aa62000a70565b005b3415620003b857600080fd5b620003d9600480803590602001909190803590602001909190505062000aa9565b005b3415620003e757600080fd5b62000415600480803573ffffffffffffffffffffffffffffffffffffffff1690602001909190505062000cd0565b005b6002818154811015156200042757fe5b90600052602060002090600202016000915090508060000160009054906101000a900473ffffffffffffffffffffffffffffffffffffffff16908060000160149054906101000a900460ff16908060010154905083565b6000809054906101000a900473ffffffffffffffffffffffffffffffffffffffff1673ffffffffffffffffffffffffffffffffffffffff163373ffffffffffffffffffffffffffffffffffffffff16141515620004da57600080fd5b60018060146101000a81548160ff02191690836001811115620004f957fe5b02179055507f94329f9760666df3bfe6333a6e7fe6fafef670005252af90430fc12f82ace36060405160405180910390a1565b600160009054906101000a900473ffffffffffffffffffffffffffffffffffffffff1681565b6000809054906101000a900473ffffffffffffffffffffffffffffffffffffffff1673ffffffffffffffffffffffffffffffffffffffff163373ffffffffffffffffffffffffffffffffffffffff16141515620005ae57600080fd5b8073ffffffffffffffffffffffffffffffffffffffff16600160009054906101000a900473ffffffffffffffffffffffffffffffffffffffff1673ffffffffffffffffffffffffffffffffffffffff167f605c2dbf762e5f7d60a546d42e7205dcb1b011ebc62a61736a57c9089d3a435060405160405180910390a380600160006101000a81548173ffffffffffffffffffffffffffffffffffffffff021916908373ffffffffffffffffffffffffffffffffffffffff16021790555050565b6000809054906101000a900473ffffffffffffffffffffffffffffffffffffffff1681565b60006200069f62000dea565b6000809054906101000a900473ffffffffffffffffffffffffffffffffffffffff1673ffffffffffffffffffffffffffffffffffffffff163373ffffffffffffffffffffffffffffffffffffffff161480620007485750600160009054906101000a900473ffffffffffffffffffffffffffffffffffffffff1673ffffffffffffffffffffffffffffffffffffffff163373ffffffffffffffffffffffffffffffffffffffff16145b15156200075457600080fd5b8686868686336200076462000e24565b80806020018060200180602001806020018760ff1660ff1681526020018673ffffffffffffffffffffffffffffffffffffffff1673ffffffffffffffffffffffffffffffffffffffff16815260200185810385528b818151815260200191508051906020019080838360005b83811015620007ed578082015181840152602081019050620007d0565b50505050905090810190601f1680156200081b5780820380516001836020036101000a031916815260200191505b5085810384528a818151815260200191508051906020019080838360005b838110156200085657808201518184015260208101905062000839565b50505050905090810190601f168015620008845780820380516001836020036101000a031916815260200191505b50858103835289818151815260200191508051906020019080838360005b83811015620008bf578082015181840152602081019050620008a2565b50505050905090810190601f168015620008ed5780820380516001836020036101000a031916815260200191505b50858103825288818151815260200191508051906020019080838360005b83811015620009285780820151818401526020810190506200090b565b50505050905090810190601f168015620009565780820380516001836020036101000a031916815260200191505b509a5050505050505050505050604051809103906000f08015156200097a57600080fd5b91506060604051908101604052808373ffffffffffffffffffffffffffffffffffffffff1681526020016000151581526020016000815250905060028054806001018281620009ca919062000e35565b9160005260206000209060020201600083909190915060008201518160000160006101000a81548173ffffffffffffffffffffffffffffffffffffffff021916908373ffffffffffffffffffffffffffffffffffffffff16021790555060208201518160000160146101000a81548160ff0219169083151502179055506040820151816001015550505050505050505050565b600160149054906101000a900460ff1681565b6000600181111562000a7e57fe5b600160149054906101000a900460ff16600181111562000a9a57fe5b14151562000aa757600080fd5b565b6000809054906101000a900473ffffffffffffffffffffffffffffffffffffffff1673ffffffffffffffffffffffffffffffffffffffff163373ffffffffffffffffffffffffffffffffffffffff1614151562000b0557600080fd5b60018081111562000b1257fe5b600160149054906101000a900460ff16600181111562000b2e57fe5b14151562000b3b57600080fd5b60008111151562000b4b57600080fd5b60003073ffffffffffffffffffffffffffffffffffffffff163111151562000b7257600080fd5b8060028381548110151562000b8357fe5b9060005260206000209060020201600101540160028381548110151562000ba657fe5b90600052602060002090600202016001018190555060028281548110151562000bcb57fe5b906000526020600020906002020160000160009054906101000a900473ffffffffffffffffffffffffffffffffffffffff1673ffffffffffffffffffffffffffffffffffffffff166108fc829081150290604051600060405180830381858888f19350505050151562000c3d57600080fd5b60028281548110151562000c4d57fe5b906000526020600020906002020160000160009054906101000a900473ffffffffffffffffffffffffffffffffffffffff1673ffffffffffffffffffffffffffffffffffffffff167fc3f75dfc78f6efac88ad5abb5e606276b903647d97b2a62a1ef89840a658bbc3826040518082815260200191505060405180910390a25050565b6000809054906101000a900473ffffffffffffffffffffffffffffffffffffffff1673ffffffffffffffffffffffffffffffffffffffff163373ffffffffffffffffffffffffffffffffffffffff1614151562000d2c57600080fd5b8073ffffffffffffffffffffffffffffffffffffffff166000809054906101000a900473ffffffffffffffffffffffffffffffffffffffff1673ffffffffffffffffffffffffffffffffffffffff167f8be0079c531659141344cd1fd0a4f28419497f9722a3daafe3b4186f6b6457e060405160405180910390a3806000806101000a81548173ffffffffffffffffffffffffffffffffffffffff021916908373ffffffffffffffffffffffffffffffffffffffff16021790555050565b606060405190810160405280600073ffffffffffffffffffffffffffffffffffffffff168152602001600015158152602001600081525090565b604051610ca28062000ed083390190565b81548183558181151162000e655760020281600202836000526020600020918201910162000e64919062000e6a565b5b505050565b62000ecc91905b8082111562000ec857600080820160006101000a81549073ffffffffffffffffffffffffffffffffffffffff02191690556000820160146101000a81549060ff021916905560018201600090555060020162000e71565b5090565b905600606060405234156200001057600080fd5b60405162000ca238038062000ca283398101604052808051820191906020018051820191906020018051820191906020018051820191906020018051906020019091908051906020019091905050620000686200023e565b81600073ffffffffffffffffffffffffffffffffffffffff168173ffffffffffffffffffffffffffffffffffffffff16141515620000e657806000806101000a81548173ffffffffffffffffffffffffffffffffffffffff021916908373ffffffffffffffffffffffffffffffffffffffff16021790555062000127565b336000806101000a81548173ffffffffffffffffffffffffffffffffffffffff021916908373ffffffffffffffffffffffffffffffffffffffff1602179055505b5060c0604051908101604052808881526020018781526020018681526020018581526020014281526020018460ff1681525090506001805480600101828162000171919062000298565b916000526020600020906006020160008390919091506000820151816000019080519060200190620001a5929190620002cd565b506020820151816001019080519060200190620001c4929190620002cd565b506040820151816002019080519060200190620001e3929190620002cd565b50606082015181600301908051906020019062000202929190620002cd565b506080820151816004015560a08201518160050160006101000a81548160ff021916908360ff1602179055505050505050505050505062000462565b60c0604051908101604052806200025462000354565b81526020016200026362000354565b81526020016200027262000354565b81526020016200028162000354565b815260200160008152602001600060ff1681525090565b815481835581811511620002c857600602816006028360005260206000209182019101620002c7919062000368565b5b505050565b828054600181600116156101000203166002900490600052602060002090601f016020900481019282601f106200031057805160ff191683800117855562000341565b8280016001018555821562000341579182015b828111156200034057825182559160200191906001019062000323565b5b509050620003509190620003ee565b5090565b602060405190810160405280600081525090565b620003eb91905b80821115620003e757600080820160006200038b919062000416565b6001820160006200039d919062000416565b600282016000620003af919062000416565b600382016000620003c1919062000416565b60048201600090556005820160006101000a81549060ff0219169055506006016200036f565b5090565b90565b6200041391905b808211156200040f576000816000905550600101620003f5565b5090565b90565b50805460018160011615610100020316600290046000825580601f106200043e57506200045f565b601f0160209004906000526020600020908101906200045e9190620003ee565b5b50565b61083080620004726000396000f300606060405260043610610062576000357c0100000000000000000000000000000000000000000000000000000000900463ffffffff1680632e1a7d4d146100645780638da5cb5b1461009f578063f2fde38b146100f4578063f422bc681461012d575b005b341561006f57600080fd5b6100856004808035906020019091905050610321565b604051808215151515815260200191505060405180910390f35b34156100aa57600080fd5b6100b261040e565b604051808273ffffffffffffffffffffffffffffffffffffffff1673ffffffffffffffffffffffffffffffffffffffff16815260200191505060405180910390f35b34156100ff57600080fd5b61012b600480803573ffffffffffffffffffffffffffffffffffffffff16906020019091905050610433565b005b341561013857600080fd5b61014e600480803590602001909190505061054c565b60405180806020018060200180602001806020018781526020018660ff1660ff16815260200185810385528b818151815260200191508051906020019080838360005b838110156101ac578082015181840152602081019050610191565b50505050905090810190601f1680156101d95780820380516001836020036101000a031916815260200191505b5085810384528a818151815260200191508051906020019080838360005b838110156102125780820151818401526020810190506101f7565b50505050905090810190601f16801561023f5780820380516001836020036101000a031916815260200191505b50858103835289818151815260200191508051906020019080838360005b8381101561027857808201518184015260208101905061025d565b50505050905090810190601f1680156102a55780820380516001836020036101000a031916815260200191505b50858103825288818151815260200191508051906020019080838360005b838110156102de5780820151818401526020810190506102c3565b50505050905090810190601f16801561030b5780820380516001836020036101000a031916815260200191505b509a505050505050505050505060405180910390f35b60008060009054906101000a900473ffffffffffffffffffffffffffffffffffffffff1673ffffffffffffffffffffffffffffffffffffffff163373ffffffffffffffffffffffffffffffffffffffff1614151561037e57600080fd5b3073ffffffffffffffffffffffffffffffffffffffff163182111515156103a457600080fd5b6000809054906101000a900473ffffffffffffffffffffffffffffffffffffffff1673ffffffffffffffffffffffffffffffffffffffff166108fc839081150290604051600060405180830381858888f19350505050151561040557600080fd5b60019050919050565b6000809054906101000a900473ffffffffffffffffffffffffffffffffffffffff1681565b6000809054906101000a900473ffffffffffffffffffffffffffffffffffffffff1673ffffffffffffffffffffffffffffffffffffffff163373ffffffffffffffffffffffffffffffffffffffff1614151561048e57600080fd5b8073ffffffffffffffffffffffffffffffffffffffff166000809054906101000a900473ffffffffffffffffffffffffffffffffffffffff1673ffffffffffffffffffffffffffffffffffffffff167f8be0079c531659141344cd1fd0a4f28419497f9722a3daafe3b4186f6b6457e060405160405180910390a3806000806101000a81548173ffffffffffffffffffffffffffffffffffffffff021916908373ffffffffffffffffffffffffffffffffffffffff16021790555050565b60018181548110151561055b57fe5b9060005260206000209060060201600091509050806000018054600181600116156101000203166002900480601f0160208091040260200160405190810160405280929190818152602001828054600181600116156101000203166002900480156106075780601f106105dc57610100808354040283529160200191610607565b820191906000526020600020905b8154815290600101906020018083116105ea57829003601f168201915b505050505090806001018054600181600116156101000203166002900480601f0160208091040260200160405190810160405280929190818152602001828054600181600116156101000203166002900480156106a55780601f1061067a576101008083540402835291602001916106a5565b820191906000526020600020905b81548152906001019060200180831161068857829003601f168201915b505050505090806002018054600181600116156101000203166002900480601f0160208091040260200160405190810160405280929190818152602001828054600181600116156101000203166002900480156107435780601f1061071857610100808354040283529160200191610743565b820191906000526020600020905b81548152906001019060200180831161072657829003601f168201915b505050505090806003018054600181600116156101000203166002900480601f0160208091040260200160405190810160405280929190818152602001828054600181600116156101000203166002900480156107e15780601f106107b6576101008083540402835291602001916107e1565b820191906000526020600020905b8154815290600101906020018083116107c457829003601f168201915b5050505050908060040154908060050160009054906101000a900460ff169050865600a165627a7a7230582018754d14f30f5d69a33dc5c57124a487971954c7be2345343b47609f677ad2bb0029a165627a7a7230582003fe94ef17f9567733adf47418d363589f671cd00ea93278182bc7b9e9f5120b0029",
  "source": "pragma solidity ^0.4.2;\n\nimport \"contracts/math/SafeMath.sol\";\nimport \"contracts/ownership/Managed.sol\";\nimport \"contracts/patent/Patent.sol\";\n\ncontract PatentManager is Managed {\n    using SafeMath for uint;\n\n    enum State { Active, Investing }\n\n    State public state;\n\n    event InvestmentsStarted();\n    event Invested(address indexed beneficiary, uint256 weiAmount);\n\n    //mapping (address => uint256) public deployedPatents;\n\n    struct newPatentData {\n        address _address;\n        bool _owned;\n        uint _invested;\n    }\n\n    newPatentData[] public deployedPatents;\n\n    function PatentManager(address _manager) public payable\n    Managed (_manager)\n    {\n        state = State.Active; // added this because did not find any state changes, by default without this state is not defined but requires Active in functions below\n    }\n\n    // take your data and creates new patent with it\n    function createPatent (string _hash, string _name, string _description, string _author, uint8 _patentType) public onlyManager {\n\n        address newPatent = new Patent(_hash, _name, _description, _author, _patentType, msg.sender);\n\n        newPatentData memory patentInfo = newPatentData({\n            _address: newPatent,\n            _owned: false,\n            _invested: 0\n            });\n\n        deployedPatents.push(patentInfo);\n    }\n\n    function deposit() /*onlyOwner*/ public payable { //commented onlyOwner because there is no other pyable function, and not owner fails here during buying tokens\n        require(state == State.Active);\n    }\n\n    function enableInvestments() onlyOwner public {\n        //require(state == State.Active); // removed this because its useless if state:Active turned on upod invoking constructor function\n        state = State.Investing;\n        emit InvestmentsStarted();\n    }\n\n    function invest(uint256 _id, uint256 _value) public onlyOwner {\n        require(state == State.Investing);\n        require(_value > 0);\n        require(address(this).balance > 0);\n        deployedPatents[_id]._invested = deployedPatents[_id]._invested + _value;\n\n        deployedPatents[_id]._address.transfer(_value);\n        emit Invested(deployedPatents[_id]._address, _value);\n    }\n\n    /**\n     * Withdraw\n     * @param  _beneficiary address to withdraw\n     * @param  _amount uint256 Amount of money\n     */\n    /* function withdraw(address _beneficiary, uint256 _amount) onlyOwner public {\n      require (_beneficiary != address(0));\n      _beneficiary.transfer(_amount);\n    } */\n\n\n    /**\n     * Get vault balance in ether/wei\n     */\n//    function getBalance() public view returns(uint){\n//        return address(this).balance;\n//    }\n}",
  "sourcePath": "/home/rewkha/work/SaveIdeas/saveideas/contract/contracts/PatentManager.sol",
  "compiler": {
    "name": "solc",
    "version": "0.4.21+commit.dfe3193c.Emscripten.clang"
  },
  "schemaVersion": "2.0.0",
  "updatedAt": "2018-04-04T22:14:18.483Z"
}