{
  "contractName": "SaveIdeasCrowdsale",
  "abi": [
    {
      "constant": true,
      "inputs": [],
      "name": "hasClosed",
      "outputs": [
        {
          "name": "",
          "type": "bool"
        }
      ],
      "payable": false,
      "stateMutability": "view",
      "type": "function"
    },
    {
      "constant": true,
      "inputs": [
        {
          "name": "",
          "type": "address"
        }
      ],
      "name": "balances",
      "outputs": [
        {
          "name": "",
          "type": "uint256"
        }
      ],
      "payable": false,
      "stateMutability": "view",
      "type": "function"
    },
    {
      "constant": true,
      "inputs": [],
      "name": "rate",
      "outputs": [
        {
          "name": "",
          "type": "uint256"
        }
      ],
      "payable": false,
      "stateMutability": "view",
      "type": "function"
    },
    {
      "constant": true,
      "inputs": [],
      "name": "cap",
      "outputs": [
        {
          "name": "",
          "type": "uint256"
        }
      ],
      "payable": false,
      "stateMutability": "view",
      "type": "function"
    },
    {
      "constant": true,
      "inputs": [],
      "name": "goal",
      "outputs": [
        {
          "name": "",
          "type": "uint256"
        }
      ],
      "payable": false,
      "stateMutability": "view",
      "type": "function"
    },
    {
      "constant": true,
      "inputs": [],
      "name": "weiRaised",
      "outputs": [
        {
          "name": "",
          "type": "uint256"
        }
      ],
      "payable": false,
      "stateMutability": "view",
      "type": "function"
    },
    {
      "constant": true,
      "inputs": [],
      "name": "closingTime",
      "outputs": [
        {
          "name": "",
          "type": "uint256"
        }
      ],
      "payable": false,
      "stateMutability": "view",
      "type": "function"
    },
    {
      "constant": false,
      "inputs": [],
      "name": "finalize",
      "outputs": [],
      "payable": false,
      "stateMutability": "nonpayable",
      "type": "function"
    },
    {
      "constant": true,
      "inputs": [],
      "name": "capReached",
      "outputs": [
        {
          "name": "",
          "type": "bool"
        }
      ],
      "payable": false,
      "stateMutability": "view",
      "type": "function"
    },
    {
      "constant": true,
      "inputs": [],
      "name": "wallet",
      "outputs": [
        {
          "name": "",
          "type": "address"
        }
      ],
      "payable": false,
      "stateMutability": "view",
      "type": "function"
    },
    {
      "constant": true,
      "inputs": [],
      "name": "goalReached",
      "outputs": [
        {
          "name": "",
          "type": "bool"
        }
      ],
      "payable": false,
      "stateMutability": "view",
      "type": "function"
    },
    {
      "constant": true,
      "inputs": [],
      "name": "isFinalized",
      "outputs": [
        {
          "name": "",
          "type": "bool"
        }
      ],
      "payable": false,
      "stateMutability": "view",
      "type": "function"
    },
    {
      "constant": false,
      "inputs": [],
      "name": "withdrawTokens",
      "outputs": [],
      "payable": false,
      "stateMutability": "nonpayable",
      "type": "function"
    },
    {
      "constant": true,
      "inputs": [],
      "name": "owner",
      "outputs": [
        {
          "name": "",
          "type": "address"
        }
      ],
      "payable": false,
      "stateMutability": "view",
      "type": "function"
    },
    {
      "constant": false,
      "inputs": [],
      "name": "claimRefund",
      "outputs": [],
      "payable": false,
      "stateMutability": "nonpayable",
      "type": "function"
    },
    {
      "constant": true,
      "inputs": [],
      "name": "openingTime",
      "outputs": [
        {
          "name": "",
          "type": "uint256"
        }
      ],
      "payable": false,
      "stateMutability": "view",
      "type": "function"
    },
    {
      "constant": true,
      "inputs": [],
      "name": "stage",
      "outputs": [
        {
          "name": "",
          "type": "uint8"
        }
      ],
      "payable": false,
      "stateMutability": "view",
      "type": "function"
    },
    {
      "constant": false,
      "inputs": [
        {
          "name": "_beneficiary",
          "type": "address"
        }
      ],
      "name": "buyTokens",
      "outputs": [],
      "payable": true,
      "stateMutability": "payable",
      "type": "function"
    },
    {
      "constant": false,
      "inputs": [
        {
          "name": "newOwner",
          "type": "address"
        }
      ],
      "name": "transferOwnership",
      "outputs": [],
      "payable": false,
      "stateMutability": "nonpayable",
      "type": "function"
    },
    {
      "constant": true,
      "inputs": [],
      "name": "vault",
      "outputs": [
        {
          "name": "",
          "type": "address"
        }
      ],
      "payable": false,
      "stateMutability": "view",
      "type": "function"
    },
    {
      "constant": true,
      "inputs": [],
      "name": "token",
      "outputs": [
        {
          "name": "",
          "type": "address"
        }
      ],
      "payable": false,
      "stateMutability": "view",
      "type": "function"
    },
    {
      "inputs": [
        {
          "name": "_wallet",
          "type": "address"
        },
        {
          "name": "_token",
          "type": "address"
        },
        {
          "name": "_openingTime",
          "type": "uint256"
        },
        {
          "name": "_closingTime",
          "type": "uint256"
        },
        {
          "name": "_initialRate",
          "type": "uint256"
        },
        {
          "name": "_goal",
          "type": "uint256"
        },
        {
          "name": "_cap",
          "type": "uint256"
        }
      ],
      "payable": false,
      "stateMutability": "nonpayable",
      "type": "constructor"
    },
    {
      "payable": true,
      "stateMutability": "payable",
      "type": "fallback"
    },
    {
      "anonymous": false,
      "inputs": [],
      "name": "CrowdsaleStageChanged",
      "type": "event"
    },
    {
      "anonymous": false,
      "inputs": [],
      "name": "Finalized",
      "type": "event"
    },
    {
      "anonymous": false,
      "inputs": [
        {
          "indexed": true,
          "name": "_from",
          "type": "address"
        },
        {
          "indexed": true,
          "name": "_to",
          "type": "address"
        }
      ],
      "name": "OwnershipTransferred",
      "type": "event"
    },
    {
      "anonymous": false,
      "inputs": [
        {
          "indexed": true,
          "name": "purchaser",
          "type": "address"
        },
        {
          "indexed": true,
          "name": "beneficiary",
          "type": "address"
        },
        {
          "indexed": false,
          "name": "value",
          "type": "uint256"
        },
        {
          "indexed": false,
          "name": "amount",
          "type": "uint256"
        }
      ],
      "name": "TokenPurchase",
      "type": "event"
    },
    {
      "constant": false,
      "inputs": [],
      "name": "changeStage",
      "outputs": [],
      "payable": false,
      "stateMutability": "nonpayable",
      "type": "function"
    }
  ],
  "bytecode": "0x60606040526000600760146101000a81548160ff0219169083151502179055506000600b60006101000a81548160ff021916908360018111156200003f57fe5b021790555034156200005057600080fd5b60405160e0806200211d833981016040528080519060200190919080519060200190919080519060200190919080519060200190919080519060200190919080519060200190919080519060200190919050508082338787878c8c600083111515620000bb57600080fd5b600073ffffffffffffffffffffffffffffffffffffffff168273ffffffffffffffffffffffffffffffffffffffff1614151515620000f857600080fd5b600073ffffffffffffffffffffffffffffffffffffffff168173ffffffffffffffffffffffffffffffffffffffff16141515156200013557600080fd5b8260028190555081600160006101000a81548173ffffffffffffffffffffffffffffffffffffffff021916908373ffffffffffffffffffffffffffffffffffffffff160217905550806000806101000a81548173ffffffffffffffffffffffffffffffffffffffff021916908373ffffffffffffffffffffffffffffffffffffffff160217905550505050428210151515620001d057600080fd5b818110151515620001e057600080fd5b81600481905550806005819055505050600073ffffffffffffffffffffffffffffffffffffffff168173ffffffffffffffffffffffffffffffffffffffff161415156200026e5780600760006101000a81548173ffffffffffffffffffffffffffffffffffffffff021916908373ffffffffffffffffffffffffffffffffffffffff160217905550620002b0565b33600760006101000a81548173ffffffffffffffffffffffffffffffffffffffff021916908373ffffffffffffffffffffffffffffffffffffffff1602179055505b50600081111515620002c157600080fd5b600160009054906101000a900473ffffffffffffffffffffffffffffffffffffffff16620002ee620003b8565b808273ffffffffffffffffffffffffffffffffffffffff1673ffffffffffffffffffffffffffffffffffffffff168152602001915050604051809103906000f08015156200033b57600080fd5b600960006101000a81548173ffffffffffffffffffffffffffffffffffffffff021916908373ffffffffffffffffffffffffffffffffffffffff16021790555080600881905550506000811115156200039357600080fd5b80600a8190555050808211151515620003ab57600080fd5b50505050505050620003c9565b604051610ab9806200166483390190565b61128b80620003d96000396000f300606060405260043610610128576000357c0100000000000000000000000000000000000000000000000000000000900463ffffffff1680631515bc2b1461013357806327e235e3146101605780632c4e722e146101ad578063355274ea146101d657806340193883146101ff5780634042b66f146102285780634b6753bc146102515780634bb278f31461027a5780634f9359451461028f578063521eb273146102bc5780637d3d6522146103115780638d4e40831461033e5780638d8f2adb1461036b5780638da5cb5b14610380578063b5545a3c146103d5578063b7a8807c146103ea578063c040e6b814610413578063c06702dd1461044a578063ec8ac4d81461045f578063f2fde38b1461048d578063fbfa77cf146104c6578063fc0c546a1461051b575b61013133610570565b005b341561013e57600080fd5b61014661062a565b604051808215151515815260200191505060405180910390f35b341561016b57600080fd5b610197600480803573ffffffffffffffffffffffffffffffffffffffff16906020019091905050610636565b6040518082815260200191505060405180910390f35b34156101b857600080fd5b6101c061064e565b6040518082815260200191505060405180910390f35b34156101e157600080fd5b6101e9610654565b6040518082815260200191505060405180910390f35b341561020a57600080fd5b61021261065a565b6040518082815260200191505060405180910390f35b341561023357600080fd5b61023b610660565b6040518082815260200191505060405180910390f35b341561025c57600080fd5b610264610666565b6040518082815260200191505060405180910390f35b341561028557600080fd5b61028d61066c565b005b341561029a57600080fd5b6102a2610748565b604051808215151515815260200191505060405180910390f35b34156102c757600080fd5b6102cf610757565b604051808273ffffffffffffffffffffffffffffffffffffffff1673ffffffffffffffffffffffffffffffffffffffff16815260200191505060405180910390f35b341561031c57600080fd5b61032461077d565b604051808215151515815260200191505060405180910390f35b341561034957600080fd5b61035161078c565b604051808215151515815260200191505060405180910390f35b341561037657600080fd5b61037e61079f565b005b341561038b57600080fd5b610393610857565b604051808273ffffffffffffffffffffffffffffffffffffffff1673ffffffffffffffffffffffffffffffffffffffff16815260200191505060405180910390f35b34156103e057600080fd5b6103e861087d565b005b34156103f557600080fd5b6103fd61097a565b6040518082815260200191505060405180910390f35b341561041e57600080fd5b610426610980565b6040518082600181111561043657fe5b60ff16815260200191505060405180910390f35b341561045557600080fd5b61045d610993565b005b61048b600480803573ffffffffffffffffffffffffffffffffffffffff16906020019091905050610570565b005b341561049857600080fd5b6104c4600480803573ffffffffffffffffffffffffffffffffffffffff16906020019091905050610a54565b005b34156104d157600080fd5b6104d9610b70565b604051808273ffffffffffffffffffffffffffffffffffffffff1673ffffffffffffffffffffffffffffffffffffffff16815260200191505060405180910390f35b341561052657600080fd5b61052e610b96565b604051808273ffffffffffffffffffffffffffffffffffffffff1673ffffffffffffffffffffffffffffffffffffffff16815260200191505060405180910390f35b6000803491506105808383610bbb565b61058982610bee565b90506105a082600354610cd990919063ffffffff16565b6003819055506105b08382610cf7565b8273ffffffffffffffffffffffffffffffffffffffff163373ffffffffffffffffffffffffffffffffffffffff167f623b3804fa71d67900d064613da8f94b9617215ee90799290593e1745087ad188484604051808381526020018281526020019250505060405180910390a3610625610d90565b505050565b60006005544211905090565b60066020528060005260406000206000915090505481565b60025481565b600a5481565b60085481565b60035481565b60055481565b600760009054906101000a900473ffffffffffffffffffffffffffffffffffffffff1673ffffffffffffffffffffffffffffffffffffffff163373ffffffffffffffffffffffffffffffffffffffff161415156106c857600080fd5b600760149054906101000a900460ff161515156106e457600080fd5b6106ec61062a565b15156106f757600080fd5b6106ff610e5e565b7f6823b073d48d6e3a7d385eeb601452d680e74bb46afe3255a7d778f3a9b1768160405160405180910390a16001600760146101000a81548160ff021916908315150217905550565b6000600a546003541015905090565b600160009054906101000a900473ffffffffffffffffffffffffffffffffffffffff1681565b60006008546003541015905090565b600760149054906101000a900460ff1681565b60006107a961062a565b15156107b457600080fd5b600660003373ffffffffffffffffffffffffffffffffffffffff1673ffffffffffffffffffffffffffffffffffffffff16815260200190815260200160002054905060008111151561080557600080fd5b6000600660003373ffffffffffffffffffffffffffffffffffffffff1673ffffffffffffffffffffffffffffffffffffffff168152602001908152602001600020819055506108543382610fa5565b50565b600760009054906101000a900473ffffffffffffffffffffffffffffffffffffffff1681565b600760149054906101000a900460ff16151561089857600080fd5b6108a061077d565b1515156108ac57600080fd5b600960009054906101000a900473ffffffffffffffffffffffffffffffffffffffff1673ffffffffffffffffffffffffffffffffffffffff1663fa89401a336040518263ffffffff167c0100000000000000000000000000000000000000000000000000000000028152600401808273ffffffffffffffffffffffffffffffffffffffff1673ffffffffffffffffffffffffffffffffffffffff168152602001915050600060405180830381600087803b151561096857600080fd5b5af1151561097557600080fd5b505050565b60045481565b600b60009054906101000a900460ff1681565b600760009054906101000a900473ffffffffffffffffffffffffffffffffffffffff1673ffffffffffffffffffffffffffffffffffffffff163373ffffffffffffffffffffffffffffffffffffffff161415156109ef57600080fd5b6109f761077d565b1515610a0257600080fd5b6001600b60006101000a81548160ff02191690836001811115610a2157fe5b02179055507fb71a9d70b94e54e0f9e5affcb89fd4d00df60adaa8b50d28f57e171cbb2dda9b60405160405180910390a1565b600760009054906101000a900473ffffffffffffffffffffffffffffffffffffffff1673ffffffffffffffffffffffffffffffffffffffff163373ffffffffffffffffffffffffffffffffffffffff16141515610ab057600080fd5b8073ffffffffffffffffffffffffffffffffffffffff16600760009054906101000a900473ffffffffffffffffffffffffffffffffffffffff1673ffffffffffffffffffffffffffffffffffffffff167f8be0079c531659141344cd1fd0a4f28419497f9722a3daafe3b4186f6b6457e060405160405180910390a380600760006101000a81548173ffffffffffffffffffffffffffffffffffffffff021916908373ffffffffffffffffffffffffffffffffffffffff16021790555050565b600960009054906101000a900473ffffffffffffffffffffffffffffffffffffffff1681565b6000809054906101000a900473ffffffffffffffffffffffffffffffffffffffff1681565b610bc58282610ff5565b600a54610bdd82600354610cd990919063ffffffff16565b11151515610bea57600080fd5b5050565b6000670de0b6b3a76400008210151515610c0457fe5b60006001811115610c1157fe5b600b60009054906101000a900460ff166001811115610c2c57fe5b1415610c8a57610c6d601e610c5f6064610c516002548761102290919063ffffffff16565b61105d90919063ffffffff16565b61102290919063ffffffff16565b610c826002548461102290919063ffffffff16565b019050610cd4565b600180811115610c9657fe5b600b60009054906101000a900460ff166001811115610cb157fe5b1415610cd357610ccc6002548361102290919063ffffffff16565b9050610cd4565b5b919050565b6000808284019050838110151515610ced57fe5b8091505092915050565b610d4981600660008573ffffffffffffffffffffffffffffffffffffffff1673ffffffffffffffffffffffffffffffffffffffff16815260200190815260200160002054610cd990919063ffffffff16565b600660008473ffffffffffffffffffffffffffffffffffffffff1673ffffffffffffffffffffffffffffffffffffffff168152602001908152602001600020819055505050565b60006001811115610d9d57fe5b600b60009054906101000a900460ff166001811115610db857fe5b1415610e2557600160009054906101000a900473ffffffffffffffffffffffffffffffffffffffff1673ffffffffffffffffffffffffffffffffffffffff166108fc349081150290604051600060405180830381858888f193505050501515610e2057600080fd5b610e5c565b600180811115610e3157fe5b600b60009054906101000a900460ff166001811115610e4c57fe5b1415610e5b57610e5a611078565b5b5b565b610e6661077d565b15610f0557600960009054906101000a900473ffffffffffffffffffffffffffffffffffffffff1673ffffffffffffffffffffffffffffffffffffffff166343d726d66040518163ffffffff167c0100000000000000000000000000000000000000000000000000000000028152600401600060405180830381600087803b1515610ef057600080fd5b5af11515610efd57600080fd5b505050610f9b565b600960009054906101000a900473ffffffffffffffffffffffffffffffffffffffff1673ffffffffffffffffffffffffffffffffffffffff16638c52dc416040518163ffffffff167c0100000000000000000000000000000000000000000000000000000000028152600401600060405180830381600087803b1515610f8a57600080fd5b5af11515610f9757600080fd5b5050505b610fa3611147565b565b610ff182826000809054906101000a900473ffffffffffffffffffffffffffffffffffffffff1673ffffffffffffffffffffffffffffffffffffffff166111499092919063ffffffff16565b5050565b600454421015801561100957506005544211155b151561101457600080fd5b61101e828261120f565b5050565b60008060008414156110375760009150611056565b828402905082848281151561104857fe5b0414151561105257fe5b8091505b5092915050565b600080828481151561106b57fe5b0490508091505092915050565b600960009054906101000a900473ffffffffffffffffffffffffffffffffffffffff1673ffffffffffffffffffffffffffffffffffffffff1663f340fa0134336040518363ffffffff167c0100000000000000000000000000000000000000000000000000000000028152600401808273ffffffffffffffffffffffffffffffffffffffff1673ffffffffffffffffffffffffffffffffffffffff1681526020019150506000604051808303818588803b151561113457600080fd5b5af1151561114157600080fd5b50505050565b565b8273ffffffffffffffffffffffffffffffffffffffff1663a9059cbb83836040518363ffffffff167c0100000000000000000000000000000000000000000000000000000000028152600401808373ffffffffffffffffffffffffffffffffffffffff1673ffffffffffffffffffffffffffffffffffffffff16815260200182815260200192505050602060405180830381600087803b15156111eb57600080fd5b5af115156111f857600080fd5b50505060405180519050151561120a57fe5b505050565b600073ffffffffffffffffffffffffffffffffffffffff168273ffffffffffffffffffffffffffffffffffffffff161415151561124b57600080fd5b6000811415151561125b57600080fd5b50505600a165627a7a72305820af5f86e4e3ff50003b5f86300943e1c9e221b0e2be7094a671dffcc564c5b97200296060604052341561000f57600080fd5b604051602080610ab98339810160405280805190602001909190505033600073ffffffffffffffffffffffffffffffffffffffff168173ffffffffffffffffffffffffffffffffffffffff161415156100a757806000806101000a81548173ffffffffffffffffffffffffffffffffffffffff021916908373ffffffffffffffffffffffffffffffffffffffff1602179055506100e8565b336000806101000a81548173ffffffffffffffffffffffffffffffffffffffff021916908373ffffffffffffffffffffffffffffffffffffffff1602179055505b50600073ffffffffffffffffffffffffffffffffffffffff168173ffffffffffffffffffffffffffffffffffffffff161415151561012557600080fd5b80600260006101000a81548173ffffffffffffffffffffffffffffffffffffffff021916908373ffffffffffffffffffffffffffffffffffffffff1602179055506000600260146101000a81548160ff0219169083600281111561018557fe5b02179055505061091f8061019a6000396000f300606060405260043610610099576000357c0100000000000000000000000000000000000000000000000000000000900463ffffffff16806343d726d61461009e578063521eb273146100b35780638c52dc41146101085780638da5cb5b1461011d578063c19d93fb14610172578063cb13cddb146101a9578063f2fde38b146101f6578063f340fa011461022f578063fa89401a1461025d575b600080fd5b34156100a957600080fd5b6100b1610296565b005b34156100be57600080fd5b6100c66103ef565b604051808273ffffffffffffffffffffffffffffffffffffffff1673ffffffffffffffffffffffffffffffffffffffff16815260200191505060405180910390f35b341561011357600080fd5b61011b610415565b005b341561012857600080fd5b6101306104f6565b604051808273ffffffffffffffffffffffffffffffffffffffff1673ffffffffffffffffffffffffffffffffffffffff16815260200191505060405180910390f35b341561017d57600080fd5b61018561051b565b6040518082600281111561019557fe5b60ff16815260200191505060405180910390f35b34156101b457600080fd5b6101e0600480803573ffffffffffffffffffffffffffffffffffffffff1690602001909190505061052e565b6040518082815260200191505060405180910390f35b341561020157600080fd5b61022d600480803573ffffffffffffffffffffffffffffffffffffffff16906020019091905050610546565b005b61025b600480803573ffffffffffffffffffffffffffffffffffffffff1690602001909190505061065f565b005b341561026857600080fd5b610294600480803573ffffffffffffffffffffffffffffffffffffffff16906020019091905050610786565b005b6000809054906101000a900473ffffffffffffffffffffffffffffffffffffffff1673ffffffffffffffffffffffffffffffffffffffff163373ffffffffffffffffffffffffffffffffffffffff161415156102f157600080fd5b600060028111156102fe57fe5b600260149054906101000a900460ff16600281111561031957fe5b14151561032557600080fd5b60028060146101000a81548160ff0219169083600281111561034357fe5b02179055507f1cdde67b72a90f19919ac732a437ac2f7a10fc128d28c2a6e525d89ce5cd9d3a60405160405180910390a1600260009054906101000a900473ffffffffffffffffffffffffffffffffffffffff1673ffffffffffffffffffffffffffffffffffffffff166108fc3073ffffffffffffffffffffffffffffffffffffffff16319081150290604051600060405180830381858888f1935050505015156103ed57600080fd5b565b600260009054906101000a900473ffffffffffffffffffffffffffffffffffffffff1681565b6000809054906101000a900473ffffffffffffffffffffffffffffffffffffffff1673ffffffffffffffffffffffffffffffffffffffff163373ffffffffffffffffffffffffffffffffffffffff1614151561047057600080fd5b6000600281111561047d57fe5b600260149054906101000a900460ff16600281111561049857fe5b1415156104a457600080fd5b6001600260146101000a81548160ff021916908360028111156104c357fe5b02179055507f599d8e5a83cffb867d051598c4d70e805d59802d8081c1c7d6dffc5b6aca2b8960405160405180910390a1565b6000809054906101000a900473ffffffffffffffffffffffffffffffffffffffff1681565b600260149054906101000a900460ff1681565b60016020528060005260406000206000915090505481565b6000809054906101000a900473ffffffffffffffffffffffffffffffffffffffff1673ffffffffffffffffffffffffffffffffffffffff163373ffffffffffffffffffffffffffffffffffffffff161415156105a157600080fd5b8073ffffffffffffffffffffffffffffffffffffffff166000809054906101000a900473ffffffffffffffffffffffffffffffffffffffff1673ffffffffffffffffffffffffffffffffffffffff167f8be0079c531659141344cd1fd0a4f28419497f9722a3daafe3b4186f6b6457e060405160405180910390a3806000806101000a81548173ffffffffffffffffffffffffffffffffffffffff021916908373ffffffffffffffffffffffffffffffffffffffff16021790555050565b6000809054906101000a900473ffffffffffffffffffffffffffffffffffffffff1673ffffffffffffffffffffffffffffffffffffffff163373ffffffffffffffffffffffffffffffffffffffff161415156106ba57600080fd5b600060028111156106c757fe5b600260149054906101000a900460ff1660028111156106e257fe5b1415156106ee57600080fd5b61074034600160008473ffffffffffffffffffffffffffffffffffffffff1673ffffffffffffffffffffffffffffffffffffffff168152602001908152602001600020546108d590919063ffffffff16565b600160008373ffffffffffffffffffffffffffffffffffffffff1673ffffffffffffffffffffffffffffffffffffffff1681526020019081526020016000208190555050565b60006001600281111561079557fe5b600260149054906101000a900460ff1660028111156107b057fe5b1415156107bc57600080fd5b600160008373ffffffffffffffffffffffffffffffffffffffff1673ffffffffffffffffffffffffffffffffffffffff1681526020019081526020016000205490506000600160008473ffffffffffffffffffffffffffffffffffffffff1673ffffffffffffffffffffffffffffffffffffffff168152602001908152602001600020819055508173ffffffffffffffffffffffffffffffffffffffff166108fc829081150290604051600060405180830381858888f19350505050151561088357600080fd5b8173ffffffffffffffffffffffffffffffffffffffff167fd7dee2702d63ad89917b6a4da9981c90c4d24f8c2bdfd64c604ecae57d8d0651826040518082815260200191505060405180910390a25050565b60008082840190508381101515156108e957fe5b80915050929150505600a165627a7a723058207333b98f8628966fffd7c020e4d1f8afa9d4b44ca537138006db5c51d88b9a7b0029",
  "source": "pragma solidity ^0.4.2;\n\nimport \"contracts/crowdsale/PostDeliveryCrowdsale.sol\";\nimport \"contracts/crowdsale/RefundableCrowdsale.sol\";\nimport \"contracts/crowdsale/CappedCrowdsale.sol\";\nimport \"contracts/SIPT.sol\";\n\n\ncontract SaveIdeasCrowdsale is PostDeliveryCrowdsale, RefundableCrowdsale, CappedCrowdsale {\n\n\n    using SafeMath for uint;\n\n    // ICO Stage\n    // ============\n    enum CrowdsaleStage { PreICO, ICO }\n    CrowdsaleStage public stage = CrowdsaleStage.PreICO; // By default it's Pre Sale\n    event CrowdsaleStageChanged();\n\n\n    /**\n    * @dev  Crowdsale constructor\n    * _wallet  MultiSig Wallet contarct address\n    * _token  SIPT contract address\n    * _openingTime   Opening date and time of crowdsale, should be given in UNIX format, required to be more than current date&time, non zero\n    * _closingTime  Closing time, after that period payments wont be able, required to be more than _openingTime and non zero\n    * _initialRate  Exchange rate for token buyers, taken from IncreasingPriceCrowdsale - in Crowdsale used as _rate\n    * _finalRate  Exchange final rate, used in IncreasingPriceCrowdsale, currently disabled\n    * _goal  Crowdsale goal set in Wei, used as \"soft cap\"\n    * _cap  Crowdsale cap set in Wei, used as \"hard cap\"\n    */\n    function SaveIdeasCrowdsale(\n        address _wallet, // should be MultiSig Wallet contarct address\n        SIPT _token,\n        uint _openingTime,\n        uint _closingTime,\n        uint _initialRate,\n        //uint _finalRate,\n        uint _goal,\n        uint _cap\n    ) public Owned(msg.sender)\n    Crowdsale (_initialRate, _wallet, _token)\n    TimedCrowdsale(_openingTime, _closingTime)\n    PostDeliveryCrowdsale()\n    //IncreasingPriceCrowdsale(_initialRate, _finalRate)\n    RefundableCrowdsale(_goal)\n    CappedCrowdsale(_cap)\n    FinalizableCrowdsale()\n    {\n        require(_goal <= _cap);\n    }\n\n    /**\n    *\n    *\n    */\n\n    function changeStage() public onlyOwner {\n        require(goalReached());\n        stage = CrowdsaleStage.ICO;\n        emit CrowdsaleStageChanged();\n\n    }\n\n\n    function _forwardFunds() internal {\n        if (stage == CrowdsaleStage.PreICO) {\n            wallet.transfer(msg.value); // All funds from PreICO goes directly to the owner's wallet - change if needed\n            // Add transfer event here\n        } else if (stage == CrowdsaleStage.ICO) {\n            // Add transfer event here\n            super._forwardFunds(); // All funds on ICO stage will go to the vault\n        }\n    }\n    /**\n     * @dev Overrides finalization function and mints additional tokens\n     *\n     */\n    // function finalization(address _team, address _bounty, address _advisors, address _reserve) internal {\n    //     mint(_team, totalTokensForTeam);\n    //     mint(_bounty, totalTokensForBounty);\n    //     mint(_advisors, totalTokensForAdvisors);\n\n    //     if (token.totalSupply() <= (maxTokens.sub(totalTokensReserve))) {\n    //         mint(_reserve, totalTokensReserve);\n    //      } else {\n    //             mint(_reserve, maxTokens.sub(token.totalSupply()));\n    //         }\n    // }\n\n    /**\n     * @dev Overrides parent to add 33% of bonus tokens during PreICO Stage\n     * @param _weiAmount Value in wei to be converted into tokens\n     * @return Number of tokens that can be purchased with the specified _weiAmount\n     */\n    function _getTokenAmount(uint256 _weiAmount) internal view returns (uint256) {\n        assert(_weiAmount >= 1000000000000000000); // require at least 1 ether as msg.value/weiAmount to proceed\n        if (stage == CrowdsaleStage.PreICO) {\n            return (_weiAmount.mul(rate) + _weiAmount.mul(rate).div(100).mul(30)); // 30% bonus tokens returns during PreSale\n        }else if (stage == CrowdsaleStage.ICO) {\n            return _weiAmount.mul(rate);\n        }\n\n    }\n\n    // 2mln EUR with ETH price 500EUR requires 4000 ETH as soft cap -> _goal -> in WEI: \"4000000000000000000000\"\n    // 25mln EUR with ETH price 500EUR requires 50000 ETH as hard cap -> _cap -> in WEI: \"50000000000000000000000\"\n\n    // pre-sale 1 and half months then\n    // the sale (first round) 1 and half month\n\n    // token number at all: 1 300 000 000 (1 billion 300 millions)\n\n    // pre-sale 30% discount\n\n    // min investment 1ETH\n\n    // distribution:\n    //60% pre sale\n    //15% token sale\n    //10% reserve;\n    //5% team\n    //5% advisors\n    //5% bounty\n\n\n}\n\n\n",
  "sourcePath": "/home/rewkha/work/SaveIdeas/saveideas/contract/contracts/SaveIdeasCrowdsale.sol",
  "compiler": {
    "name": "solc",
    "version": "0.4.21+commit.dfe3193c.Emscripten.clang"
  },
  "schemaVersion": "2.0.0",
  "updatedAt": "2018-04-04T22:14:18.499Z"
}