{
  "contractName": "TokenTimelock",
  "abi": [
    {
      "constant": true,
      "inputs": [
        {
          "name": "",
          "type": "address"
        }
      ],
      "name": "timeLockedAmounts",
      "outputs": [
        {
          "name": "releaseDate",
          "type": "uint256"
        },
        {
          "name": "value",
          "type": "uint256"
        }
      ],
      "payable": false,
      "stateMutability": "view",
      "type": "function"
    },
    {
      "constant": true,
      "inputs": [],
      "name": "owner",
      "outputs": [
        {
          "name": "",
          "type": "address"
        }
      ],
      "payable": false,
      "stateMutability": "view",
      "type": "function"
    },
    {
      "constant": false,
      "inputs": [
        {
          "name": "newOwner",
          "type": "address"
        }
      ],
      "name": "transferOwnership",
      "outputs": [],
      "payable": false,
      "stateMutability": "nonpayable",
      "type": "function"
    },
    {
      "inputs": [],
      "payable": false,
      "stateMutability": "nonpayable",
      "type": "constructor"
    },
    {
      "anonymous": false,
      "inputs": [
        {
          "indexed": true,
          "name": "spender",
          "type": "address"
        },
        {
          "indexed": false,
          "name": "tokens",
          "type": "uint256"
        }
      ],
      "name": "Released",
      "type": "event"
    },
    {
      "anonymous": false,
      "inputs": [
        {
          "indexed": true,
          "name": "spender",
          "type": "address"
        },
        {
          "indexed": false,
          "name": "tokens",
          "type": "uint256"
        },
        {
          "indexed": false,
          "name": "releaseTime",
          "type": "uint256"
        }
      ],
      "name": "Locked",
      "type": "event"
    },
    {
      "anonymous": false,
      "inputs": [
        {
          "indexed": true,
          "name": "_from",
          "type": "address"
        },
        {
          "indexed": true,
          "name": "_to",
          "type": "address"
        }
      ],
      "name": "OwnershipTransferred",
      "type": "event"
    },
    {
      "constant": false,
      "inputs": [
        {
          "name": "_addressToUnlock",
          "type": "address"
        }
      ],
      "name": "release",
      "outputs": [],
      "payable": false,
      "stateMutability": "nonpayable",
      "type": "function"
    },
    {
      "constant": false,
      "inputs": [
        {
          "name": "_addressToLock",
          "type": "address"
        },
        {
          "name": "_value",
          "type": "uint256"
        },
        {
          "name": "_releaseDate",
          "type": "uint256"
        }
      ],
      "name": "lockFunds",
      "outputs": [],
      "payable": false,
      "stateMutability": "nonpayable",
      "type": "function"
    }
  ],
  "bytecode": "0x6060604052341561000f57600080fd5b33600073ffffffffffffffffffffffffffffffffffffffff168173ffffffffffffffffffffffffffffffffffffffff1614151561008b57806000806101000a81548173ffffffffffffffffffffffffffffffffffffffff021916908373ffffffffffffffffffffffffffffffffffffffff1602179055506100cc565b336000806101000a81548173ffffffffffffffffffffffffffffffffffffffff021916908373ffffffffffffffffffffffffffffffffffffffff1602179055505b50610651806100dc6000396000f30060606040526004361061006d576000357c0100000000000000000000000000000000000000000000000000000000900463ffffffff16806319165587146100725780638b6e7337146100ab5780638da5cb5b146100ff578063babac77e14610154578063f2fde38b1461019f575b600080fd5b341561007d57600080fd5b6100a9600480803573ffffffffffffffffffffffffffffffffffffffff169060200190919050506101d8565b005b34156100b657600080fd5b6100e2600480803573ffffffffffffffffffffffffffffffffffffffff16906020019091905050610349565b604051808381526020018281526020019250505060405180910390f35b341561010a57600080fd5b61011261036d565b604051808273ffffffffffffffffffffffffffffffffffffffff1673ffffffffffffffffffffffffffffffffffffffff16815260200191505060405180910390f35b341561015f57600080fd5b61019d600480803573ffffffffffffffffffffffffffffffffffffffff16906020019091908035906020019091908035906020019091905050610392565b005b34156101aa57600080fd5b6101d6600480803573ffffffffffffffffffffffffffffffffffffffff1690602001909190505061050c565b005b600073ffffffffffffffffffffffffffffffffffffffff168173ffffffffffffffffffffffffffffffffffffffff161415151561021457600080fd5b600160008273ffffffffffffffffffffffffffffffffffffffff1673ffffffffffffffffffffffffffffffffffffffff16815260200190815260200160002060000154421015151561026557600080fd5b6000600160008373ffffffffffffffffffffffffffffffffffffffff1673ffffffffffffffffffffffffffffffffffffffff168152602001908152602001600020600101541115156102b657600080fd5b8073ffffffffffffffffffffffffffffffffffffffff167fb21fb52d5749b80f3182f8c6992236b5e5576681880914484d7f4c9b062e619e600160008473ffffffffffffffffffffffffffffffffffffffff1673ffffffffffffffffffffffffffffffffffffffff168152602001908152602001600020600101546040518082815260200191505060405180910390a250565b60016020528060005260406000206000915090508060000154908060010154905082565b6000809054906101000a900473ffffffffffffffffffffffffffffffffffffffff1681565b6000809054906101000a900473ffffffffffffffffffffffffffffffffffffffff1673ffffffffffffffffffffffffffffffffffffffff163373ffffffffffffffffffffffffffffffffffffffff161415156103ed57600080fd5b600073ffffffffffffffffffffffffffffffffffffffff168373ffffffffffffffffffffffffffffffffffffffff161415151561042957600080fd5b428111151561043757600080fd5b60008211151561044657600080fd5b604080519081016040528082815260200183815250600160008573ffffffffffffffffffffffffffffffffffffffff1673ffffffffffffffffffffffffffffffffffffffff16815260200190815260200160002060008201518160000155602082015181600101559050508273ffffffffffffffffffffffffffffffffffffffff167fd4665e3049283582ba6f9eba07a5b3e12dab49e02da99e8927a47af5d134bea58383604051808381526020018281526020019250505060405180910390a2505050565b6000809054906101000a900473ffffffffffffffffffffffffffffffffffffffff1673ffffffffffffffffffffffffffffffffffffffff163373ffffffffffffffffffffffffffffffffffffffff1614151561056757600080fd5b8073ffffffffffffffffffffffffffffffffffffffff166000809054906101000a900473ffffffffffffffffffffffffffffffffffffffff1673ffffffffffffffffffffffffffffffffffffffff167f8be0079c531659141344cd1fd0a4f28419497f9722a3daafe3b4186f6b6457e060405160405180910390a3806000806101000a81548173ffffffffffffffffffffffffffffffffffffffff021916908373ffffffffffffffffffffffffffffffffffffffff160217905550505600a165627a7a723058208869dfc5c77ad0eb5822ef406c6c614dbfb4d8ba155f6d588f51a4ebbe075fc90029",
  "source": "pragma solidity ^0.4.2;\n\n/**\n * @title SafeMath\n * @dev Math operations with safety checks that throw on error\n */\nlibrary SafeMath {\n\n    /**\n    * @dev Multiplies two numbers, throws on overflow.\n    */\n    function mul(uint256 a, uint256 b) internal pure returns (uint256) {\n        if (a == 0) {\n            return 0;\n        }\n        uint256 c = a * b;\n        assert(c / a == b);\n        return c;\n    }\n\n    /**\n    * @dev Integer division of two numbers, truncating the quotient.\n    */\n    function div(uint256 a, uint256 b) internal pure returns (uint256) {\n        // assert(b > 0); // Solidity automatically throws when dividing by 0\n        uint256 c = a / b;\n        // assert(a == b * c + a % b); // There is no case in which this doesn't hold\n        return c;\n    }\n\n    /**\n    * @dev Subtracts two numbers, throws on overflow (i.e. if subtrahend is greater than minuend).\n    */\n    function sub(uint256 a, uint256 b) internal pure returns (uint256) {\n        assert(b <= a);\n        return a - b;\n    }\n\n    /**\n    * @dev Adds two numbers, throws on overflow.\n    */\n    function add(uint256 a, uint256 b) internal pure returns (uint256) {\n        uint256 c = a + b;\n        assert(c >= a);\n        return c;\n    }\n}\n\n/**\n * @title SafeERC20\n * @dev Wrappers around ERC20 operations that throw on failure.\n * To use this library you can add a `using SafeERC20 for ERC20;` statement to your contract,\n * which allows you to call the safe operations as `token.safeTransfer(...)`, etc.\n */\nlibrary SafeERC20 {\n    function safeTransfer(ERC20Basic token, address to, uint256 value) internal {\n        assert(token.transfer(to, value));\n    }\n\n    function safeTransferFrom(ERC20 token, address from, address to, uint256 value) internal {\n        assert(token.transferFrom(from, to, value));\n    }\n\n    function safeApprove(ERC20 token, address spender, uint256 value) internal {\n        assert(token.approve(spender, value));\n    }\n}\n\n/**\n * @title Owned\n * @dev The Owned contract has an owner address, and provides basic authorization control\n * functions, this simplifies the implementation of \"user permissions\".\n */\ncontract Owned {\n\n    address public owner;\n    event OwnershipTransferred(address indexed _from, address indexed _to);\n\n    /**\n     * @dev The Ownable constructor sets the original `owner` of the contract to the provided address or sender\n     * account.\n     */\n    function Owned(address definedOwner) public {\n        if (definedOwner != address(0)) {\n            owner = definedOwner;\n        } else {\n            owner = msg.sender;\n        }\n    }\n\n    /**\n     * @dev Throws if called by any account other than the owner.\n     */\n    modifier onlyOwner {\n        require(msg.sender == owner);\n        _;\n    }\n\n    /**\n     * @dev Allows the current owner to transfer control of the contract to a newOwner.\n     */\n    function transferOwnership(address newOwner) onlyOwner public {\n        emit OwnershipTransferred(owner, newOwner);\n        owner = newOwner;\n    }\n}\n\n/**\n * @title Managed\n * @dev The Managed contract has an manager address, and provides basic authorization control which extends Owned\n * Used for Patent Manager contract\n * functions, this simplifies the implementation of \"user permissions\".\n */\ncontract Managed is Owned {\n\n    address public manager;\n    event ManagerChanged(address indexed _from, address indexed _to);\n\n    /**\n     * @dev The Ownable constructor sets the original `manager` of the contract to the provided address or sender\n     * account.\n     */\n    function Managed(address definedManager) public Owned(msg.sender) {\n        if (definedManager != address(0)) {\n            manager = definedManager;\n        } else {\n            manager = msg.sender;\n        }\n    }\n\n    modifier onlyManager {\n        require(msg.sender == owner || msg.sender == manager);\n        _;\n    }\n\n    /**\n     * @dev Allows the current owner to transfer control of the managed functions\n     */\n    function transferManagerRights(address newManager) onlyOwner public {\n        emit ManagerChanged(manager, newManager);\n        manager = newManager;\n    }\n}\n\n/**\n * @title ERC20Basic\n * @dev Simpler version of ERC20 interface\n * @dev see https://github.com/ethereum/EIPs/issues/179\n */\ncontract ERC20Basic {\n    function totalSupply() public view returns (uint256);\n    function balanceOf(address who) public view returns (uint256);\n    function transfer(address to, uint256 value) public returns (bool);\n    event Transfer(address indexed from, address indexed to, uint256 value);\n}\n\n/**\n * @title ERC20 interface\n * @dev see https://github.com/ethereum/EIPs/issues/20\n */\ncontract ERC20 is ERC20Basic {\n    function allowance(address owner, address spender) public view returns (uint256);\n    function transferFrom(address from, address to, uint256 value) public returns (bool);\n    function approve(address spender, uint256 value) public returns (bool);\n    event Approval(address indexed owner, address indexed spender, uint256 value);\n}\n\n/**\n * @title Basic token\n * @dev Basic version of StandardToken, with no allowances.\n */\ncontract BasicToken is ERC20Basic {\n    using SafeMath for uint256;\n\n    mapping(address => uint256) balances;\n\n    uint256 totalSupply_;\n\n    /**\n    * @dev total number of tokens in existence\n    */\n    function totalSupply() public view returns (uint256) {\n        return totalSupply_;\n    }\n\n    /**\n    * @dev transfer token for a specified address\n    * @param _to The address to transfer to.\n    * @param _value The amount to be transferred.\n    */\n    function transfer(address _to, uint256 _value) public returns (bool) {\n        require(_to != address(0));\n        require(_value <= balances[address(this)]);\n\n        // SafeMath.sub will throw if there is not enough balance.\n        balances[address(this)] = balances[address(this)].sub(_value);\n        balances[_to] = balances[_to].add(_value);\n        emit Transfer(address(this), _to, _value);\n        return true;\n    }\n\n    /**\n    * @dev Gets the balance of the specified address.\n    * @param _owner The address to query the the balance of.\n    * @return An uint256 representing the amount owned by the passed address.\n    */\n    function balanceOf(address _owner) public view returns (uint256 balance) {\n        return balances[_owner];\n    }\n\n}\n\n/**\n * @title Standard ERC20 token\n *\n * @dev Implementation of the basic standard token.\n * @dev https://github.com/ethereum/EIPs/issues/20\n * @dev Based on code by FirstBlood: https://github.com/Firstbloodio/token/blob/master/smart_contract/FirstBloodToken.sol\n */\ncontract StandardToken is ERC20, BasicToken {\n\n    mapping (address => mapping (address => uint256)) internal allowed;\n\n\n    /**\n     * @dev Transfer tokens from one address to another\n     * @param _from address The address which you want to send tokens from\n     * @param _to address The address which you want to transfer to\n     * @param _value uint256 the amount of tokens to be transferred\n     */\n    function transferFrom(address _from, address _to, uint256 _value) public returns (bool) {\n        require(_to != address(0));\n        require(_value <= balances[_from]);\n        require(_value <= allowed[_from][msg.sender]);\n\n        balances[_from] = balances[_from].sub(_value);\n        balances[_to] = balances[_to].add(_value);\n        allowed[_from][msg.sender] = allowed[_from][msg.sender].sub(_value);\n        emit Transfer(_from, _to, _value);\n        return true;\n    }\n\n    /**\n     * @dev Approve the passed address to spend the specified amount of tokens on behalf of msg.sender.\n     *\n     * Beware that changing an allowance with this method brings the risk that someone may use both the old\n     * and the new allowance by unfortunate transaction ordering. One possible solution to mitigate this\n     * race condition is to first reduce the spender's allowance to 0 and set the desired value afterwards:\n     * https://github.com/ethereum/EIPs/issues/20#issuecomment-263524729\n     * @param _spender The address which will spend the funds.\n     * @param _value The amount of tokens to be spent.\n     */\n    function approve(address _spender, uint256 _value) public returns (bool) {\n        allowed[msg.sender][_spender] = _value;\n        emit Approval(msg.sender, _spender, _value);\n        return true;\n    }\n\n    /**\n     * @dev Function to check the amount of tokens that an owner allowed to a spender.\n     * @param _owner address The address which owns the funds.\n     * @param _spender address The address which will spend the funds.\n     * @return A uint256 specifying the amount of tokens still available for the spender.\n     */\n    function allowance(address _owner, address _spender) public view returns (uint256) {\n        return allowed[_owner][_spender];\n    }\n\n    /**\n     * @dev Increase the amount of tokens that an owner allowed to a spender.\n     *\n     * approve should be called when allowed[_spender] == 0. To increment\n     * allowed value is better to use this function to avoid 2 calls (and wait until\n     * the first transaction is mined)\n     * From MonolithDAO Token.sol\n     * @param _spender The address which will spend the funds.\n     * @param _addedValue The amount of tokens to increase the allowance by.\n     */\n    function increaseApproval(address _spender, uint _addedValue) public returns (bool) {\n        allowed[msg.sender][_spender] = allowed[msg.sender][_spender].add(_addedValue);\n        emit Approval(msg.sender, _spender, allowed[msg.sender][_spender]);\n        return true;\n    }\n\n    /**\n     * @dev Decrease the amount of tokens that an owner allowed to a spender.\n     *\n     * approve should be called when allowed[_spender] == 0. To decrement\n     * allowed value is better to use this function to avoid 2 calls (and wait until\n     * the first transaction is mined)\n     * From MonolithDAO Token.sol\n     * @param _spender The address which will spend the funds.\n     * @param _subtractedValue The amount of tokens to decrease the allowance by.\n     */\n    function decreaseApproval(address _spender, uint _subtractedValue) public returns (bool) {\n        uint oldValue = allowed[msg.sender][_spender];\n        if (_subtractedValue > oldValue) {\n            allowed[msg.sender][_spender] = 0;\n        } else {\n            allowed[msg.sender][_spender] = oldValue.sub(_subtractedValue);\n        }\n        emit Approval(msg.sender, _spender, allowed[msg.sender][_spender]);\n        return true;\n    }\n\n}\n\n/**s\n * @title Burnable Token\n * @dev Token that can be irreversibly burned (destroyed).\n */\ncontract BurnableToken is BasicToken, Owned {\n\n    using SafeMath for uint;\n\n    event Burn(address indexed burner, uint256 value);\n\n    /**\n     * @dev Burns a specific amount of tokens in the token storage - contract's balance. Could be requested only by contract Owner.\n     * @param _value The amount of token to be burned.\n     * !! msg.sender changed to address(this) because tokens issue and save on the token contract instead of contract creator address\n     * !! this does not provide a possibility to burn tokens on any buyer's balance\n     */\n    function burnInStorage(uint _value) public onlyOwner {\n        require(_value <= balances[address(this)]);\n        // no need to require value <= totalSupply, since that would imply the\n        // sender's balance is greater than the totalSupply, which *should* be an assertion failure\n\n        address burner = address(this);\n        balances[burner] = balances[burner].sub(_value);\n        totalSupply_ = totalSupply_.sub(_value);\n        emit Burn(burner, _value);\n        emit Transfer(burner, address(0), _value);\n    }\n\n\n    /**\n    * @dev Burns a specific amount of tokens on msg.sender's address\n    * @param _value The amount of token to be burned.\n    * Could be requested by anyone, who owns tokens.\n    */\n    function burnMyTokens(uint _value) public {\n        require(_value <= balances[msg.sender]);\n\n        address burner = msg.sender;\n        balances[burner] = balances[burner].sub(_value);\n        totalSupply_ = totalSupply_.sub(_value);\n        emit Burn(burner, _value);\n        emit Transfer(burner, address(0), _value);\n    }\n}\n\n/**\n * @title Mintable token\n * @dev Simple ERC20 Token example, with mintable token creation\n * @dev Issue: * https://github.com/OpenZeppelin/zeppelin-solidity/issues/120\n * Based on code by TokenMarketNet: https://github.com/TokenMarketNet/ico/blob/master/contracts/MintableToken.sol\n */\ncontract MintableToken is StandardToken, Owned {\n    event Mint(address indexed to, uint256 amount);\n    event MintFinished();\n\n    bool public mintingFinished = false;\n\n\n    modifier canMint() {\n        require(!mintingFinished);\n        _;\n    }\n\n    /**\n     * @dev Function to mint tokens\n     * @param _to The address that will receive the minted tokens.\n     * @param _amount The amount of tokens to mint.\n     * @return A boolean that indicates if the operation was successful.\n     */\n    function mint(address _to, uint256 _amount) onlyOwner canMint public returns (bool) {\n        totalSupply_ = totalSupply_.add(_amount);\n        balances[_to] = balances[_to].add(_amount);\n        emit Mint(_to, _amount);\n        emit Transfer(address(0), _to, _amount);\n        return true;\n    }\n\n    /**\n     * @dev Function to stop minting new tokens.\n     * @return True if the operation was successful.\n     */\n    function finishMinting() onlyOwner canMint public returns (bool) {\n        mintingFinished = true;\n        emit MintFinished();\n        return true;\n    }\n}\n\n/**\n * @title TokenTimelock\n */\ncontract TokenTimelock is Owned {\n\n    event Released(address indexed spender, uint tokens);\n    event Locked (address indexed spender, uint tokens, uint releaseTime);\n\n    struct lockedSpender {\n        uint256 releaseDate;\n        uint256 value;\n    }\n\n    mapping (address => lockedSpender) public timeLockedAmounts;\n\n    /**\n     * TokenTimelock\n     */\n    function TokenTimelock() public Owned(msg.sender) {\n\n    }\n\n    /**\n     * @notice Allow spend tokens held by timelock to beneficiary.\n     */\n    function release(address _addressToUnlock) public {\n        require(_addressToUnlock != address(0));\n        require(now >= timeLockedAmounts[_addressToUnlock].releaseDate);\n        require(timeLockedAmounts[_addressToUnlock].value > 0);\n\n        /* allowed[address(this)][_addressToUnlock] = timeLockedAmounts[_addressToUnlock].value; */\n\n        emit Released(_addressToUnlock, timeLockedAmounts[_addressToUnlock].value);\n    }\n\n    /**\n     *\n     * @param _addressToLock address\n     * @param _value uint256\n     * @param _releaseDate uint256\n     */\n    function lockFunds(address _addressToLock, uint256 _value , uint256 _releaseDate) public onlyOwner {\n        require(_addressToLock != address(0));\n        require(_releaseDate > now);\n        require(_value > 0);\n        timeLockedAmounts[_addressToLock] = lockedSpender(_releaseDate, _value);\n        emit Locked(_addressToLock, _value, _releaseDate);\n    }\n}\n\n/**\n * @title Crowdsale\n * @dev Crowdsale is a base contract for managing a token crowdsale,\n * allowing investors to purchase tokens with ether. This contract implements\n * such functionality in its most fundamental form and can be extended to provide additional\n * functionality and/or custom behavior.\n * The external interface represents the basic interface for purchasing tokens, and conform\n * the base architecture for crowdsales. They are *not* intended to be modified / overriden.\n * The internal interface conforms the extensible and modifiable surface of crowdsales. Override\n * the methods to add functionality. Consider using 'super' where appropiate to concatenate\n * behavior.\n */\ncontract Crowdsale {\n    using SafeMath for uint256;\n    using SafeERC20 for ERC20;\n\n    // The token being sold\n    ERC20 public token;\n\n    // Address where funds are collected\n    address public wallet;\n\n    // How many token units a buyer gets per wei\n    uint256 public rate;\n\n    // Amount of wei raised\n    uint256 public weiRaised;\n\n    /**\n     * Event for token purchase logging\n     * @param purchaser who paid for the tokens\n     * @param beneficiary who got the tokens\n     * @param value weis paid for purchase\n     * @param amount amount of tokens purchased\n     */\n    event TokenPurchase(address indexed purchaser, address indexed beneficiary, uint256 value, uint256 amount);\n\n    /**\n     * @param _rate Number of token units a buyer gets per wei\n     * @param _wallet Address where collected funds will be forwarded to\n     * @param _token Address of the token being sold\n     */\n    function Crowdsale(uint256 _rate, address _wallet, ERC20 _token) public {\n        require(_rate > 0);\n        require(_wallet != address(0));\n        require(_token != address(0));\n\n        rate = _rate;\n        wallet = _wallet;\n        token = _token;\n    }\n    // -----------------------------------------\n    // Crowdsale external interface\n    // -----------------------------------------\n\n    /**\n     * @dev fallback function ***DO NOT OVERRIDE***\n     */\n    function () external payable {\n        buyTokens(msg.sender);\n    }\n\n    /**\n     * @dev low level token purchase ***DO NOT OVERRIDE***\n     * @param _beneficiary Address performing the token purchase\n     */\n    function buyTokens(address _beneficiary) public payable {\n\n        uint256 weiAmount = msg.value;\n        _preValidatePurchase(_beneficiary, weiAmount);\n\n        // calculate token amount to be created\n        uint256 tokens = _getTokenAmount(weiAmount);\n\n        // update state\n        weiRaised = weiRaised.add(weiAmount);\n\n        _processPurchase(_beneficiary, tokens);\n        emit TokenPurchase(msg.sender, _beneficiary, weiAmount, tokens);\n\n        /* _updatePurchasingState(_beneficiary, weiAmount); */\n\n        _forwardFunds();\n        /* _postValidatePurchase(_beneficiary, weiAmount); */\n    }\n\n    // -----------------------------------------\n    // Internal interface (extensible)\n    // -----------------------------------------\n\n    /**\n     * @dev Validation of an incoming purchase. Use require statements to revert state when conditions are not met. Use super to concatenate validations.\n     * @param _beneficiary Address performing the token purchase\n     * @param _weiAmount Value in wei involved in the purchase\n     */\n    function _preValidatePurchase(address _beneficiary, uint256 _weiAmount) internal {\n        require(_beneficiary != address(0));\n        require(_weiAmount != 0);\n    }\n\n    /**\n     * @dev Validation of an executed purchase. Observe state and use revert statements to undo rollback when valid conditions are not met.\n     * @param _beneficiary Address performing the token purchase\n     * @param _weiAmount Value in wei involved in the purchase\n     */\n    /* function _postValidatePurchase(address _beneficiary, uint256 _weiAmount) internal {\n      // optional override\n    } */\n\n    /**\n     * @dev Source of tokens. Override this method to modify the way in which the crowdsale ultimately gets and sends its tokens.\n     * @param _beneficiary Address performing the token purchase\n     * @param _tokenAmount Number of tokens to be emitted\n     */\n    function _deliverTokens(address _beneficiary, uint256 _tokenAmount) internal {\n        token.safeTransfer(_beneficiary, _tokenAmount);\n    }\n\n    /**\n     * @dev Executed when a purchase has been validated and is ready to be executed. Not necessarily emits/sends tokens.\n     * @param _beneficiary Address receiving the tokens\n     * @param _tokenAmount Number of tokens to be purchased\n     */\n    function _processPurchase(address _beneficiary, uint256 _tokenAmount) internal {\n        _deliverTokens(_beneficiary, _tokenAmount);\n    }\n\n    /**\n     * @dev Override for extensions that require an internal state to check for validity (current user contributions, etc.)\n     * @param _beneficiary Address receiving the tokens\n     * @param _weiAmount Value in wei involved in the purchase\n     */\n    /* function _updatePurchasingState(address _beneficiary, uint256 _weiAmount) internal {\n      // optional override\n    } */\n\n    /**\n     * @dev Override to extend the way in which ether is converted to tokens.\n     * @param _weiAmount Value in wei to be converted into tokens\n     * @return Number of tokens that can be purchased with the specified _weiAmount\n     */\n    function _getTokenAmount(uint256 _weiAmount) internal view returns (uint256) {\n        return _weiAmount.mul(rate);\n    }\n\n    /**\n     * @dev Determines how ETH is stored/forwarded on purchases.\n     */\n    function _forwardFunds() internal {\n        wallet.transfer(msg.value);\n    }\n}\n\n/**\n * @title CappedCrowdsale\n * @dev Crowdsale with a limit for total contributions.\n */\ncontract CappedCrowdsale is Crowdsale {\n    using SafeMath for uint256;\n\n    uint256 public cap;\n\n    /**\n     * @dev Constructor, takes maximum amount of wei accepted in the crowdsale.\n     * @param _cap Max amount of wei to be contributed\n     */\n    function CappedCrowdsale(uint256 _cap) public {\n        require(_cap > 0);\n        cap = _cap;\n    }\n\n    /**\n     * @dev Checks whether the cap has been reached.\n     * @return Whether the cap was reached\n     */\n    function capReached() public view returns (bool) {\n        return weiRaised >= cap;\n    }\n\n    /**\n     * @dev Extend parent behavior requiring purchase to respect the funding cap.\n     * @param _beneficiary Token purchaser\n     * @param _weiAmount Amount of wei contributed\n     */\n    function _preValidatePurchase(address _beneficiary, uint256 _weiAmount) internal {\n        super._preValidatePurchase(_beneficiary, _weiAmount);\n        require(weiRaised.add(_weiAmount) <= cap);\n    }\n\n}\n\n/**\n*Contract Patent is used by main contract to create new patents (ideas).\n*It has array of created patents and patent constructor.\n*Contract owner can withdraw funds from contract.\n*/\ncontract Patent is Owned {\n\n    using SafeMath for uint;\n\n    struct patentInfo {\n        string name;\n        string description;\n        string author;\n        uint date;\n        uint8 patentType;\n    }\n\n    patentInfo[] public patents;\n\n    function Patent(\n        string _name,\n        string _description,\n        string _author,\n        uint8 _patentType,\n        address creator\n    ) public Owned(creator) {\n\n        patentInfo memory newPatent = patentInfo({\n            name: _name,\n            description: _description,\n            author: _author,\n            date: now,\n            patentType: _patentType\n            });\n\n        patents.push(newPatent);\n    }\n\n    function withdraw(uint amount) onlyOwner public returns(bool) {\n        require(amount <= address(this).balance);\n        owner.transfer(amount);\n        return true;\n\n    }\n\n    function getBalance() public view returns(uint){\n        return address(this).balance;\n    }\n\n    function () public payable {\n    }\n\n}\n\ncontract PatentManager is Managed {\n    using SafeMath for uint;\n\n    enum State { Active, Investing }\n\n    State public state;\n\n    event InvestmentsStarted();\n    event Invested(address indexed beneficiary, uint256 weiAmount);\n\n    //mapping (address => newPatentData) public deployedPatents;\n\n    struct newPatentData {\n        address _address;\n        bool _owned;\n        uint _invested;\n    }\n\n    newPatentData[] public deployedPatents;\n\n    function PatentManager(address _manager) public payable\n    Managed (_manager)\n    {\n        state = State.Active;\n    }\n\n    // take your data and creates new patent with it\n    function createPatent (string _name, string _description, string _author, uint8 _patentType) public onlyManager {\n\n        address newPatent = new Patent(_name, _description, _author, _patentType, msg.sender);\n\n        newPatentData memory patentInfo = newPatentData({\n            _address: newPatent,\n            _owned: false,\n            _invested: 0\n            });\n\n        deployedPatents.push(patentInfo);\n    }\n\n    //  function getDeployedPatents () public view returns (nowasd) {\n    //   return deployedPatents;\n    // }\n\n\n    // function deposit() /*onlyOwner*/ public payable {\n    //     require(state == State.Active);\n    // }\n\n    function enableInvestments() onlyOwner public {\n        //require(state == State.Active);\n        state = State.Investing;\n        emit InvestmentsStarted();\n    }\n\n    function invest(uint256 _id, uint256 _value) public onlyOwner {\n        require(state == State.Investing);\n        require(_value > 0);\n        require(address(this).balance > 0);\n        deployedPatents[_id]._invested = deployedPatents[_id]._invested + _value;\n\n        deployedPatents[_id]._address.transfer(_value);\n        emit Invested(deployedPatents[_id]._address, _value);\n    }\n\n    /**\n     * Withdraw\n     * @param  _beneficiary address to withdraw\n     * @param  _amount uint256 Amount of money\n     */\n    /* function withdraw(address _beneficiary, uint256 _amount) onlyOwner public {\n      require (_beneficiary != address(0));\n      _beneficiary.transfer(_amount);\n    } */\n\n\n    /**\n     * Get SIPT balance in ether/wei\n     */\n    function getBalance() public view returns(uint){\n        return address(this).balance;\n    }\n}\n\n/**\n*'SIPT' 'Save Ideas Patent Token' token contract\n* Symbol      : SIPT\n* Name        : Save Ideas Patent Token / Save Ideas Token\n* Total supply: 1 300 000 000.000000000000000000\n* Decimals    : 18\n*/\ncontract SIPT is MintableToken {\n    using SafeMath for uint;\n\n    string public constant name = \"Save Ideas Token\";\n    string public constant symbol = \"SIPT\";\n    uint8 public constant decimals = 18;\n\n    uint256 public maxTokens = 1300000000000000000000000000; // There will be total 1 300 000 000 SI Tokens\n    uint256 public totalTokensForSaleDuringPreICO = 780000000000000000000000000; // 78 000 0000 tokens for PreSale\n    uint256 public totalTokensForSale = 195000000000000000000000000; // 195 000 000 for Crowdsale\n    uint256 public totalTokensReserve = 130000000000000000000000000; //13 000 0000 for reserve\n    uint256 public totalTokensForTeam = 65000000000000000000000000; // 65 000 000 for team\n    uint256 public totalTokensForAdvisors = 65000000000000000000000000; // 65 000 000 for advisors\n    uint256 public totalTokensForBounty = 65000000000000000000000000; // 65 000 000 for bounty\n\n\n    //SIPT constructor\n    function SIPT() public Owned(msg.sender) {\n        mint(address(this), totalTokensForSaleDuringPreICO);\n    }\n\n}\n\n/**\n * @title TimedCrowdsale\n * @dev Crowdsale accepting contributions only within a time frame.\n */\ncontract TimedCrowdsale is Crowdsale {\n    using SafeMath for uint256;\n\n    uint256 public openingTime;\n    uint256 public closingTime;\n\n    /**\n     * @dev Reverts if not in crowdsale time range.\n     */\n    modifier onlyWhileOpen {\n        require(now >= openingTime && now <= closingTime);\n        _;\n    }\n\n    /**\n     * @dev Constructor, takes crowdsale opening and closing times.\n     * @param _openingTime Crowdsale opening time\n     * @param _closingTime Crowdsale closing time\n     */\n    function TimedCrowdsale(uint256 _openingTime, uint256 _closingTime) public {\n        require(_openingTime >= now);\n        //require(_closingTime >= _openingTime);\n\n        openingTime = _openingTime;\n        closingTime = _closingTime;\n    }\n\n    /**\n     * @dev Checks whether the period in which the crowdsale is open has already elapsed.\n     * @return Whether crowdsale period has elapsed\n     */\n    function hasClosed() public view returns (bool) {\n        return now > closingTime;\n    }\n\n    /**\n     * @dev Extend parent behavior requiring to be within contributing period\n     * @param _beneficiary Token purchaser\n     * @param _weiAmount Amount of wei contributed\n     */\n    function _preValidatePurchase(address _beneficiary, uint256 _weiAmount) internal onlyWhileOpen {\n        super._preValidatePurchase(_beneficiary, _weiAmount);\n    }\n\n}\n\n/**\n * @title IncreasingPriceCrowdsale\n * @dev Extension of Crowdsale contract that increases the price of tokens linearly in time.\n * Note that what should be provided to the constructor is the initial and final _rates_, that is,\n * the amount of tokens per wei contributed. Thus, the initial rate must be greater than the final rate.\n */\ncontract IncreasingPriceCrowdsale is TimedCrowdsale {\n    using SafeMath for uint256;\n\n    uint256 public initialRate;\n    uint256 public finalRate;\n\n    /**\n     * @dev Constructor, takes intial and final rates of tokens received per wei contributed.\n     * @param _initialRate Number of tokens a buyer gets per wei at the start of the crowdsale\n     * @param _finalRate Number of tokens a buyer gets per wei at the end of the crowdsale\n     */\n    function IncreasingPriceCrowdsale(uint256 _initialRate, uint256 _finalRate) public {\n        require(_initialRate >= _finalRate);\n        require(_finalRate > 0);\n        initialRate = _initialRate;\n        finalRate = _finalRate;\n    }\n\n    /**\n     * @dev Returns the rate of tokens per wei at the present time.\n     * Note that, as price _increases_ with time, the rate _decreases_.\n     * @return The number of tokens a buyer gets per wei at a given time\n     */\n    function getCurrentRate() public view returns (uint256) {\n        uint256 elapsedTime = now.sub(openingTime);\n        uint256 timeRange = closingTime.sub(openingTime);\n        uint256 rateRange = initialRate.sub(finalRate);\n        return initialRate.sub(elapsedTime.mul(rateRange).div(timeRange));\n    }\n\n    /**\n     * @dev Overrides parent method taking into account variable rate.\n     * @param _weiAmount The value in wei to be converted into tokens\n     * @return The number of tokens _weiAmount wei will buy at present time\n     */\n    function _getTokenAmount(uint256 _weiAmount) internal view returns (uint256) {\n        uint256 currentRate = getCurrentRate();\n        return currentRate.mul(_weiAmount);\n    }\n\n}\n\n/**\n * @title RefundVault\n * @dev This contract is used for storing funds while a crowdsale\n * is in progress. Supports refunding the money if crowdsale fails,\n * and forwarding it if crowdsale is successful.\n */\ncontract RefundVault is Owned {\n    using SafeMath for uint256;\n\n    enum State { Active, Refunding, Closed }\n\n    mapping (address => uint256) public deposited;\n    address public wallet;\n    State public state;\n\n    event Closed();\n    event RefundsEnabled();\n    event Refunded(address indexed beneficiary, uint256 weiAmount);\n\n    /**\n     * @param _wallet Vault address\n     */\n    function RefundVault(address _wallet) public Owned(msg.sender) {\n        require(_wallet != address(0));\n        wallet = _wallet;\n        state = State.Active;\n    }\n\n    /**\n     * @param investor Investor address\n     */\n    function deposit(address investor) onlyOwner public payable {\n        require(state == State.Active);\n        deposited[investor] = deposited[investor].add(msg.value);\n    }\n\n    function close() onlyOwner public {\n        require(state == State.Active);\n        state = State.Closed;\n        emit Closed();\n        wallet.transfer(address(this).balance);\n    }\n\n    function enableRefunds() onlyOwner public {\n        require(state == State.Active);\n        state = State.Refunding;\n        emit RefundsEnabled();\n    }\n\n    /**\n     * @param investor Investor address\n     */\n    function refund(address investor) public {\n        require(state == State.Refunding);\n        uint256 depositedValue = deposited[investor];\n        deposited[investor] = 0;\n        investor.transfer(depositedValue);\n        emit Refunded(investor, depositedValue);\n    }\n}\n\n/**\n * @title FinalizableCrowdsale\n * @dev Extension of Crowdsale where an owner can do extra work\n * after finishing.\n */\ncontract FinalizableCrowdsale is TimedCrowdsale, Owned {\n    using SafeMath for uint256;\n\n    bool public isFinalized = false;\n\n    event Finalized();\n\n    /**\n     * @dev Must be called after crowdsale ends, to do some extra finalization\n     * work. Calls the contract's finalization function.\n     */\n    function finalize() onlyOwner public {\n        require(!isFinalized);\n        require(hasClosed());\n\n        finalization();\n        emit Finalized();\n\n        isFinalized = true;\n    }\n\n    /**\n     * @dev Can be overridden to add finalization logic. The overriding function\n     * should call super.finalization() to ensure the chain of finalization is\n     * executed entirely.\n     */\n    function finalization() internal {\n    }\n}\n\n/**\n * @title RefundableCrowdsale\n * @dev Extension of Crowdsale contract that adds a funding goal, and\n * the possibility of users getting a refund if goal is not met.\n * Uses a RefundVault as the crowdsale's vault.\n */\ncontract RefundableCrowdsale is FinalizableCrowdsale {\n    using SafeMath for uint256;\n\n    // minimum amount of funds to be raised in weis\n    uint256 public goal;\n\n    // refund vault used to hold funds while crowdsale is running\n    RefundVault public vault;\n\n    /**\n    * @dev Constructor, creates RefundVault.\n    * @param _goal Funding goal\n    */\n    function RefundableCrowdsale(uint256 _goal) public {\n        require(_goal > 0);\n        vault = new RefundVault(wallet);\n        goal = _goal;\n    }\n\n    /**\n    * @dev Investors can claim refunds here if crowdsale is unsuccessful\n    */\n    function claimRefund() public {\n        require(isFinalized);\n        require(!goalReached());\n\n        vault.refund(msg.sender);\n    }\n\n    /**\n    * @dev Checks whether funding goal was reached.\n    * @return Whether funding goal was reached\n    */\n    function goalReached() public view returns (bool) {\n        return weiRaised >= goal;\n    }\n\n    /**\n    * @dev vault finalization task, called when owner calls finalize()\n    */\n    function finalization() internal {\n        if (goalReached()) {\n            vault.close();\n        } else {\n            vault.enableRefunds();\n        }\n\n        super.finalization();\n    }\n\n    /**\n    * @dev Overrides Crowdsale fund forwarding, sending funds to vault.\n    */\n    function _forwardFunds() internal {\n        vault.deposit.value(msg.value)(msg.sender);\n    }\n\n}\n\n/**\n * @title PostDeliveryCrowdsale\n * @dev Crowdsale that locks tokens from withdrawal until it ends.\n */\ncontract PostDeliveryCrowdsale is TimedCrowdsale {\n    using SafeMath for uint256;\n\n    mapping(address => uint256) public balances;\n\n    /**\n     * @dev Overrides parent by storing balances instead of issuing tokens right away.\n     * @param _beneficiary Token purchaser\n     * @param _tokenAmount Amount of tokens purchased\n     */\n    function _processPurchase(address _beneficiary, uint256 _tokenAmount) internal {\n        balances[_beneficiary] = balances[_beneficiary].add(_tokenAmount);\n    }\n\n    /**\n     * @dev Withdraw tokens only after crowdsale ends.\n     */\n    function withdrawTokens() public {\n        require(hasClosed());\n        uint256 amount = balances[msg.sender];\n        require(amount > 0);\n        balances[msg.sender] = 0;\n        _deliverTokens(msg.sender, amount);\n    }\n}\n\ncontract SaveIdeasCrowdsale is PostDeliveryCrowdsale, RefundableCrowdsale, CappedCrowdsale, SIPT {\n\n    using SafeMath for uint;\n\n    // ICO Stage\n    // ============\n    enum CrowdsaleStage { PreICO, ICO }\n    CrowdsaleStage public stage = CrowdsaleStage.PreICO; // By default it's Pre Sale\n    event CrowdsaleStageChanged();\n\n    address public SIPTaddress;\n\n    function SaveIdeasCrowdsale(\n        address _wallet, // should be MultiSig Wallet contarct address\n        MintableToken _token,\n        uint _openingTime,\n        uint _closingTime,\n        uint _initialRate,\n    //uint _finalRate,\n        uint _goal,\n        uint _cap\n    ) public Owned(msg.sender)\n    Crowdsale (_initialRate, _wallet, _token)\n    TimedCrowdsale(_openingTime, _closingTime)\n    PostDeliveryCrowdsale()\n        //IncreasingPriceCrowdsale(_initialRate, _finalRate)\n    RefundableCrowdsale(_goal)\n    CappedCrowdsale(_cap)\n    FinalizableCrowdsale()\n    {\n        require(_goal <= _cap);\n        SIPTaddress = address(_token);\n    }\n\n    function changeStage() public onlyOwner {\n        require(goalReached());\n        stage = CrowdsaleStage.ICO;\n        emit CrowdsaleStageChanged();\n\n\n    }\n\n    function emitSale() public onlyOwner {\n        //SIPT instanceSIPT = SIPT(SIPTaddress);\n        mint(SIPTaddress, 9999999);\n\n    }\n\n    function _forwardFunds() internal {\n        if (stage == CrowdsaleStage.PreICO) {\n            wallet.transfer(msg.value); // All funds from PreICO goes directly to the owner's wallet - change if needed\n            //EthTransferred(\"forwarding funds to wallet\");\n        } else if (stage == CrowdsaleStage.ICO) {\n            //EthTransferred(\"forwarding funds to refundable vault\");\n            super._forwardFunds();\n        }\n    }\n    /**\n     * @dev Overrides finalization function and mints additional tokens\n     *\n     */\n    // function finalization(address _team, address _bounty, address _advisors, address _reserve) internal {\n    //     mint(_team, totalTokensForTeam);\n    //     mint(_bounty, totalTokensForBounty);\n    //     mint(_advisors, totalTokensForAdvisors);\n\n    //     if (token.totalSupply() <= (maxTokens.sub(totalTokensReserve))) {\n    //         mint(_reserve, totalTokensReserve);\n    //      } else {\n    //             mint(_reserve, maxTokens.sub(token.totalSupply()));\n    //         }\n    // }\n\n    /**\n     * @dev Overrides parent to add 33% of bonus tokens during PreICO Stage\n     * @param _weiAmount Value in wei to be converted into tokens\n     * @return Number of tokens that can be purchased with the specified _weiAmount\n     */\n    function _getTokenAmount(uint256 _weiAmount) internal view returns (uint256) {\n        assert(_weiAmount >= 1000000000000000000); // require at least 1 ether as msg.value/weiAmount to proceed\n        if (stage == CrowdsaleStage.PreICO) {\n            return (_weiAmount.mul(rate) + _weiAmount.mul(rate).div(100).mul(30));\n        }else if (stage == CrowdsaleStage.ICO) {\n            return _weiAmount.mul(rate);\n        }\n\n    }\n\n\n\n\n\n    // 2mln EUR with ETH price 500EUR requires 4000 ETH as soft cap -> _goal -> in WEI: 4000000000000000000000\n    // 25mln EUR with ETH price 500EUR requires 50000 ETH as hard cap -> _cap -> in WEI: 50000000000000000000000\n\n    // pre-sale 1 and half months then\n    // the sale (first round) 1 and half month\n\n    // token number at all: 1 300 000 000 (1 billion 300 millions)\n\n    // pre-sale 30% discount\n\n    // min investment 1ETH\n\n    // distribution:\n    //60% pre sale\n    //15% token sale\n    //10% reserve;\n    //5% team\n    //5% advisors\n    //5% bounty\n\n\n}\n",
  "sourcePath": "/home/rewkha/work/SaveIdeas/saveideas/contract/contracts/forRemixTest.sol",
  "compiler": {
    "name": "solc",
    "version": "0.4.21+commit.dfe3193c.Emscripten.clang"
  },
  "schemaVersion": "2.0.0",
  "updatedAt": "2018-04-03T22:03:30.465Z"
}